{
  "contracts/Interest.sol": {
    "Interest": {
      "abi": [
        {
          "inputs": [
            {
              "internalType": "uint256",
              "name": "_principal",
              "type": "uint256"
            },
            {
              "internalType": "uint256",
              "name": "_rate",
              "type": "uint256"
            },
            {
              "internalType": "uint256",
              "name": "_age",
              "type": "uint256"
            }
          ],
          "name": "accrueInterest",
          "outputs": [
            {
              "internalType": "uint256",
              "name": "",
              "type": "uint256"
            }
          ],
          "stateMutability": "pure",
          "type": "function"
        },
        {
          "inputs": [
            {
              "internalType": "uint256",
              "name": "_rateWad",
              "type": "uint256"
            }
          ],
          "name": "yearlyRateToRay",
          "outputs": [
            {
              "internalType": "uint256",
              "name": "",
              "type": "uint256"
            }
          ],
          "stateMutability": "pure",
          "type": "function"
        }
      ],
      "evm": {
        "bytecode": {
          "linkReferences": {},
          "object": "608060405234801561001057600080fd5b50610747806100206000396000f3fe608060405234801561001057600080fd5b50600436106100365760003560e01c8063060614cb1461003b578063de251fb61461006b575b600080fd5b610055600480360381019061005091906103a8565b61009b565b60405161006291906103e4565b60405180910390f35b610085600480360381019061008091906103ff565b6100db565b60405161009291906103e4565b60405180910390f35b60006100d46100b1670de0b6b3a7640000610102565b6100cf6100bd85610102565b6100ca6301e13380610119565b610138565b610178565b9050919050565b60006100f96100f3856100ee86866101d1565b61025b565b856102a7565b90509392505050565b600061011282633b9aca00610300565b9050919050565b6000610131826b033b2e3c9fd0803ce8000000610300565b9050919050565b600081610166610154856b033b2e3c9fd0803ce8000000610300565b60028561016191906104b0565b610178565b61017091906104b0565b905092915050565b600082828461018791906104e1565b91508110156101cb576040517f08c379a00000000000000000000000000000000000000000000000000000000081526004016101c290610572565b60405180910390fd5b92915050565b6000806002836101e19190610592565b036101f8576b033b2e3c9fd0803ce80000006101fa565b825b905060028261020991906104b0565b91505b600082146102555761021e838461025b565b9250600060028361022f9190610592565b146102415761023e818461025b565b90505b60028261024e91906104b0565b915061020c565b92915050565b60006b033b2e3c9fd0803ce80000006102956102778585610300565b60026b033b2e3c9fd0803ce800000061029091906104b0565b610178565b61029f91906104b0565b905092915050565b60008282846102b691906105c3565b91508111156102fa576040517f08c379a00000000000000000000000000000000000000000000000000000000081526004016102f190610643565b60405180910390fd5b92915050565b6000808214806103285750828283856103199190610663565b92508261032691906104b0565b145b610367576040517f08c379a000000000000000000000000000000000000000000000000000000000815260040161035e906106f1565b60405180910390fd5b92915050565b600080fd5b6000819050919050565b61038581610372565b811461039057600080fd5b50565b6000813590506103a28161037c565b92915050565b6000602082840312156103be576103bd61036d565b5b60006103cc84828501610393565b91505092915050565b6103de81610372565b82525050565b60006020820190506103f960008301846103d5565b92915050565b6000806000606084860312156104185761041761036d565b5b600061042686828701610393565b935050602061043786828701610393565b925050604061044886828701610393565b9150509250925092565b7f4e487b7100000000000000000000000000000000000000000000000000000000600052601260045260246000fd5b7f4e487b7100000000000000000000000000000000000000000000000000000000600052601160045260246000fd5b60006104bb82610372565b91506104c683610372565b9250826104d6576104d5610452565b5b828204905092915050565b60006104ec82610372565b91506104f783610372565b925082820190508082111561050f5761050e610481565b5b92915050565b600082825260208201905092915050565b7f64732d6d6174682d6164642d6f766572666c6f77000000000000000000000000600082015250565b600061055c601483610515565b915061056782610526565b602082019050919050565b6000602082019050818103600083015261058b8161054f565b9050919050565b600061059d82610372565b91506105a883610372565b9250826105b8576105b7610452565b5b828206905092915050565b60006105ce82610372565b91506105d983610372565b92508282039050818111156105f1576105f0610481565b5b92915050565b7f64732d6d6174682d7375622d756e646572666c6f770000000000000000000000600082015250565b600061062d601583610515565b9150610638826105f7565b602082019050919050565b6000602082019050818103600083015261065c81610620565b9050919050565b600061066e82610372565b915061067983610372565b925082820261068781610372565b9150828204841483151761069e5761069d610481565b5b5092915050565b7f64732d6d6174682d6d756c2d6f766572666c6f77000000000000000000000000600082015250565b60006106db601483610515565b91506106e6826106a5565b602082019050919050565b6000602082019050818103600083015261070a816106ce565b905091905056fea26469706673582212206e391f5957a8819f97d8b8956bbd1c881ccf778507d08b09cd413e8780c7148264736f6c63430008180033",
          "opcodes": "PUSH1 0x80 PUSH1 0x40 MSTORE CALLVALUE DUP1 ISZERO PUSH2 0x10 JUMPI PUSH1 0x0 DUP1 REVERT JUMPDEST POP PUSH2 0x747 DUP1 PUSH2 0x20 PUSH1 0x0 CODECOPY PUSH1 0x0 RETURN INVALID PUSH1 0x80 PUSH1 0x40 MSTORE CALLVALUE DUP1 ISZERO PUSH2 0x10 JUMPI PUSH1 0x0 DUP1 REVERT JUMPDEST POP PUSH1 0x4 CALLDATASIZE LT PUSH2 0x36 JUMPI PUSH1 0x0 CALLDATALOAD PUSH1 0xE0 SHR DUP1 PUSH4 0x60614CB EQ PUSH2 0x3B JUMPI DUP1 PUSH4 0xDE251FB6 EQ PUSH2 0x6B JUMPI JUMPDEST PUSH1 0x0 DUP1 REVERT JUMPDEST PUSH2 0x55 PUSH1 0x4 DUP1 CALLDATASIZE SUB DUP2 ADD SWAP1 PUSH2 0x50 SWAP2 SWAP1 PUSH2 0x3A8 JUMP JUMPDEST PUSH2 0x9B JUMP JUMPDEST PUSH1 0x40 MLOAD PUSH2 0x62 SWAP2 SWAP1 PUSH2 0x3E4 JUMP JUMPDEST PUSH1 0x40 MLOAD DUP1 SWAP2 SUB SWAP1 RETURN JUMPDEST PUSH2 0x85 PUSH1 0x4 DUP1 CALLDATASIZE SUB DUP2 ADD SWAP1 PUSH2 0x80 SWAP2 SWAP1 PUSH2 0x3FF JUMP JUMPDEST PUSH2 0xDB JUMP JUMPDEST PUSH1 0x40 MLOAD PUSH2 0x92 SWAP2 SWAP1 PUSH2 0x3E4 JUMP JUMPDEST PUSH1 0x40 MLOAD DUP1 SWAP2 SUB SWAP1 RETURN JUMPDEST PUSH1 0x0 PUSH2 0xD4 PUSH2 0xB1 PUSH8 0xDE0B6B3A7640000 PUSH2 0x102 JUMP JUMPDEST PUSH2 0xCF PUSH2 0xBD DUP6 PUSH2 0x102 JUMP JUMPDEST PUSH2 0xCA PUSH4 0x1E13380 PUSH2 0x119 JUMP JUMPDEST PUSH2 0x138 JUMP JUMPDEST PUSH2 0x178 JUMP JUMPDEST SWAP1 POP SWAP2 SWAP1 POP JUMP JUMPDEST PUSH1 0x0 PUSH2 0xF9 PUSH2 0xF3 DUP6 PUSH2 0xEE DUP7 DUP7 PUSH2 0x1D1 JUMP JUMPDEST PUSH2 0x25B JUMP JUMPDEST DUP6 PUSH2 0x2A7 JUMP JUMPDEST SWAP1 POP SWAP4 SWAP3 POP POP POP JUMP JUMPDEST PUSH1 0x0 PUSH2 0x112 DUP3 PUSH4 0x3B9ACA00 PUSH2 0x300 JUMP JUMPDEST SWAP1 POP SWAP2 SWAP1 POP JUMP JUMPDEST PUSH1 0x0 PUSH2 0x131 DUP3 PUSH12 0x33B2E3C9FD0803CE8000000 PUSH2 0x300 JUMP JUMPDEST SWAP1 POP SWAP2 SWAP1 POP JUMP JUMPDEST PUSH1 0x0 DUP2 PUSH2 0x166 PUSH2 0x154 DUP6 PUSH12 0x33B2E3C9FD0803CE8000000 PUSH2 0x300 JUMP JUMPDEST PUSH1 0x2 DUP6 PUSH2 0x161 SWAP2 SWAP1 PUSH2 0x4B0 JUMP JUMPDEST PUSH2 0x178 JUMP JUMPDEST PUSH2 0x170 SWAP2 SWAP1 PUSH2 0x4B0 JUMP JUMPDEST SWAP1 POP SWAP3 SWAP2 POP POP JUMP JUMPDEST PUSH1 0x0 DUP3 DUP3 DUP5 PUSH2 0x187 SWAP2 SWAP1 PUSH2 0x4E1 JUMP JUMPDEST SWAP2 POP DUP2 LT ISZERO PUSH2 0x1CB JUMPI PUSH1 0x40 MLOAD PUSH32 0x8C379A000000000000000000000000000000000000000000000000000000000 DUP2 MSTORE PUSH1 0x4 ADD PUSH2 0x1C2 SWAP1 PUSH2 0x572 JUMP JUMPDEST PUSH1 0x40 MLOAD DUP1 SWAP2 SUB SWAP1 REVERT JUMPDEST SWAP3 SWAP2 POP POP JUMP JUMPDEST PUSH1 0x0 DUP1 PUSH1 0x2 DUP4 PUSH2 0x1E1 SWAP2 SWAP1 PUSH2 0x592 JUMP JUMPDEST SUB PUSH2 0x1F8 JUMPI PUSH12 0x33B2E3C9FD0803CE8000000 PUSH2 0x1FA JUMP JUMPDEST DUP3 JUMPDEST SWAP1 POP PUSH1 0x2 DUP3 PUSH2 0x209 SWAP2 SWAP1 PUSH2 0x4B0 JUMP JUMPDEST SWAP2 POP JUMPDEST PUSH1 0x0 DUP3 EQ PUSH2 0x255 JUMPI PUSH2 0x21E DUP4 DUP5 PUSH2 0x25B JUMP JUMPDEST SWAP3 POP PUSH1 0x0 PUSH1 0x2 DUP4 PUSH2 0x22F SWAP2 SWAP1 PUSH2 0x592 JUMP JUMPDEST EQ PUSH2 0x241 JUMPI PUSH2 0x23E DUP2 DUP5 PUSH2 0x25B JUMP JUMPDEST SWAP1 POP JUMPDEST PUSH1 0x2 DUP3 PUSH2 0x24E SWAP2 SWAP1 PUSH2 0x4B0 JUMP JUMPDEST SWAP2 POP PUSH2 0x20C JUMP JUMPDEST SWAP3 SWAP2 POP POP JUMP JUMPDEST PUSH1 0x0 PUSH12 0x33B2E3C9FD0803CE8000000 PUSH2 0x295 PUSH2 0x277 DUP6 DUP6 PUSH2 0x300 JUMP JUMPDEST PUSH1 0x2 PUSH12 0x33B2E3C9FD0803CE8000000 PUSH2 0x290 SWAP2 SWAP1 PUSH2 0x4B0 JUMP JUMPDEST PUSH2 0x178 JUMP JUMPDEST PUSH2 0x29F SWAP2 SWAP1 PUSH2 0x4B0 JUMP JUMPDEST SWAP1 POP SWAP3 SWAP2 POP POP JUMP JUMPDEST PUSH1 0x0 DUP3 DUP3 DUP5 PUSH2 0x2B6 SWAP2 SWAP1 PUSH2 0x5C3 JUMP JUMPDEST SWAP2 POP DUP2 GT ISZERO PUSH2 0x2FA JUMPI PUSH1 0x40 MLOAD PUSH32 0x8C379A000000000000000000000000000000000000000000000000000000000 DUP2 MSTORE PUSH1 0x4 ADD PUSH2 0x2F1 SWAP1 PUSH2 0x643 JUMP JUMPDEST PUSH1 0x40 MLOAD DUP1 SWAP2 SUB SWAP1 REVERT JUMPDEST SWAP3 SWAP2 POP POP JUMP JUMPDEST PUSH1 0x0 DUP1 DUP3 EQ DUP1 PUSH2 0x328 JUMPI POP DUP3 DUP3 DUP4 DUP6 PUSH2 0x319 SWAP2 SWAP1 PUSH2 0x663 JUMP JUMPDEST SWAP3 POP DUP3 PUSH2 0x326 SWAP2 SWAP1 PUSH2 0x4B0 JUMP JUMPDEST EQ JUMPDEST PUSH2 0x367 JUMPI PUSH1 0x40 MLOAD PUSH32 0x8C379A000000000000000000000000000000000000000000000000000000000 DUP2 MSTORE PUSH1 0x4 ADD PUSH2 0x35E SWAP1 PUSH2 0x6F1 JUMP JUMPDEST PUSH1 0x40 MLOAD DUP1 SWAP2 SUB SWAP1 REVERT JUMPDEST SWAP3 SWAP2 POP POP JUMP JUMPDEST PUSH1 0x0 DUP1 REVERT JUMPDEST PUSH1 0x0 DUP2 SWAP1 POP SWAP2 SWAP1 POP JUMP JUMPDEST PUSH2 0x385 DUP2 PUSH2 0x372 JUMP JUMPDEST DUP2 EQ PUSH2 0x390 JUMPI PUSH1 0x0 DUP1 REVERT JUMPDEST POP JUMP JUMPDEST PUSH1 0x0 DUP2 CALLDATALOAD SWAP1 POP PUSH2 0x3A2 DUP2 PUSH2 0x37C JUMP JUMPDEST SWAP3 SWAP2 POP POP JUMP JUMPDEST PUSH1 0x0 PUSH1 0x20 DUP3 DUP5 SUB SLT ISZERO PUSH2 0x3BE JUMPI PUSH2 0x3BD PUSH2 0x36D JUMP JUMPDEST JUMPDEST PUSH1 0x0 PUSH2 0x3CC DUP5 DUP3 DUP6 ADD PUSH2 0x393 JUMP JUMPDEST SWAP2 POP POP SWAP3 SWAP2 POP POP JUMP JUMPDEST PUSH2 0x3DE DUP2 PUSH2 0x372 JUMP JUMPDEST DUP3 MSTORE POP POP JUMP JUMPDEST PUSH1 0x0 PUSH1 0x20 DUP3 ADD SWAP1 POP PUSH2 0x3F9 PUSH1 0x0 DUP4 ADD DUP5 PUSH2 0x3D5 JUMP JUMPDEST SWAP3 SWAP2 POP POP JUMP JUMPDEST PUSH1 0x0 DUP1 PUSH1 0x0 PUSH1 0x60 DUP5 DUP7 SUB SLT ISZERO PUSH2 0x418 JUMPI PUSH2 0x417 PUSH2 0x36D JUMP JUMPDEST JUMPDEST PUSH1 0x0 PUSH2 0x426 DUP7 DUP3 DUP8 ADD PUSH2 0x393 JUMP JUMPDEST SWAP4 POP POP PUSH1 0x20 PUSH2 0x437 DUP7 DUP3 DUP8 ADD PUSH2 0x393 JUMP JUMPDEST SWAP3 POP POP PUSH1 0x40 PUSH2 0x448 DUP7 DUP3 DUP8 ADD PUSH2 0x393 JUMP JUMPDEST SWAP2 POP POP SWAP3 POP SWAP3 POP SWAP3 JUMP JUMPDEST PUSH32 0x4E487B7100000000000000000000000000000000000000000000000000000000 PUSH1 0x0 MSTORE PUSH1 0x12 PUSH1 0x4 MSTORE PUSH1 0x24 PUSH1 0x0 REVERT JUMPDEST PUSH32 0x4E487B7100000000000000000000000000000000000000000000000000000000 PUSH1 0x0 MSTORE PUSH1 0x11 PUSH1 0x4 MSTORE PUSH1 0x24 PUSH1 0x0 REVERT JUMPDEST PUSH1 0x0 PUSH2 0x4BB DUP3 PUSH2 0x372 JUMP JUMPDEST SWAP2 POP PUSH2 0x4C6 DUP4 PUSH2 0x372 JUMP JUMPDEST SWAP3 POP DUP3 PUSH2 0x4D6 JUMPI PUSH2 0x4D5 PUSH2 0x452 JUMP JUMPDEST JUMPDEST DUP3 DUP3 DIV SWAP1 POP SWAP3 SWAP2 POP POP JUMP JUMPDEST PUSH1 0x0 PUSH2 0x4EC DUP3 PUSH2 0x372 JUMP JUMPDEST SWAP2 POP PUSH2 0x4F7 DUP4 PUSH2 0x372 JUMP JUMPDEST SWAP3 POP DUP3 DUP3 ADD SWAP1 POP DUP1 DUP3 GT ISZERO PUSH2 0x50F JUMPI PUSH2 0x50E PUSH2 0x481 JUMP JUMPDEST JUMPDEST SWAP3 SWAP2 POP POP JUMP JUMPDEST PUSH1 0x0 DUP3 DUP3 MSTORE PUSH1 0x20 DUP3 ADD SWAP1 POP SWAP3 SWAP2 POP POP JUMP JUMPDEST PUSH32 0x64732D6D6174682D6164642D6F766572666C6F77000000000000000000000000 PUSH1 0x0 DUP3 ADD MSTORE POP JUMP JUMPDEST PUSH1 0x0 PUSH2 0x55C PUSH1 0x14 DUP4 PUSH2 0x515 JUMP JUMPDEST SWAP2 POP PUSH2 0x567 DUP3 PUSH2 0x526 JUMP JUMPDEST PUSH1 0x20 DUP3 ADD SWAP1 POP SWAP2 SWAP1 POP JUMP JUMPDEST PUSH1 0x0 PUSH1 0x20 DUP3 ADD SWAP1 POP DUP2 DUP2 SUB PUSH1 0x0 DUP4 ADD MSTORE PUSH2 0x58B DUP2 PUSH2 0x54F JUMP JUMPDEST SWAP1 POP SWAP2 SWAP1 POP JUMP JUMPDEST PUSH1 0x0 PUSH2 0x59D DUP3 PUSH2 0x372 JUMP JUMPDEST SWAP2 POP PUSH2 0x5A8 DUP4 PUSH2 0x372 JUMP JUMPDEST SWAP3 POP DUP3 PUSH2 0x5B8 JUMPI PUSH2 0x5B7 PUSH2 0x452 JUMP JUMPDEST JUMPDEST DUP3 DUP3 MOD SWAP1 POP SWAP3 SWAP2 POP POP JUMP JUMPDEST PUSH1 0x0 PUSH2 0x5CE DUP3 PUSH2 0x372 JUMP JUMPDEST SWAP2 POP PUSH2 0x5D9 DUP4 PUSH2 0x372 JUMP JUMPDEST SWAP3 POP DUP3 DUP3 SUB SWAP1 POP DUP2 DUP2 GT ISZERO PUSH2 0x5F1 JUMPI PUSH2 0x5F0 PUSH2 0x481 JUMP JUMPDEST JUMPDEST SWAP3 SWAP2 POP POP JUMP JUMPDEST PUSH32 0x64732D6D6174682D7375622D756E646572666C6F770000000000000000000000 PUSH1 0x0 DUP3 ADD MSTORE POP JUMP JUMPDEST PUSH1 0x0 PUSH2 0x62D PUSH1 0x15 DUP4 PUSH2 0x515 JUMP JUMPDEST SWAP2 POP PUSH2 0x638 DUP3 PUSH2 0x5F7 JUMP JUMPDEST PUSH1 0x20 DUP3 ADD SWAP1 POP SWAP2 SWAP1 POP JUMP JUMPDEST PUSH1 0x0 PUSH1 0x20 DUP3 ADD SWAP1 POP DUP2 DUP2 SUB PUSH1 0x0 DUP4 ADD MSTORE PUSH2 0x65C DUP2 PUSH2 0x620 JUMP JUMPDEST SWAP1 POP SWAP2 SWAP1 POP JUMP JUMPDEST PUSH1 0x0 PUSH2 0x66E DUP3 PUSH2 0x372 JUMP JUMPDEST SWAP2 POP PUSH2 0x679 DUP4 PUSH2 0x372 JUMP JUMPDEST SWAP3 POP DUP3 DUP3 MUL PUSH2 0x687 DUP2 PUSH2 0x372 JUMP JUMPDEST SWAP2 POP DUP3 DUP3 DIV DUP5 EQ DUP4 ISZERO OR PUSH2 0x69E JUMPI PUSH2 0x69D PUSH2 0x481 JUMP JUMPDEST JUMPDEST POP SWAP3 SWAP2 POP POP JUMP JUMPDEST PUSH32 0x64732D6D6174682D6D756C2D6F766572666C6F77000000000000000000000000 PUSH1 0x0 DUP3 ADD MSTORE POP JUMP JUMPDEST PUSH1 0x0 PUSH2 0x6DB PUSH1 0x14 DUP4 PUSH2 0x515 JUMP JUMPDEST SWAP2 POP PUSH2 0x6E6 DUP3 PUSH2 0x6A5 JUMP JUMPDEST PUSH1 0x20 DUP3 ADD SWAP1 POP SWAP2 SWAP1 POP JUMP JUMPDEST PUSH1 0x0 PUSH1 0x20 DUP3 ADD SWAP1 POP DUP2 DUP2 SUB PUSH1 0x0 DUP4 ADD MSTORE PUSH2 0x70A DUP2 PUSH2 0x6CE JUMP JUMPDEST SWAP1 POP SWAP2 SWAP1 POP JUMP INVALID LOG2 PUSH5 0x6970667358 0x22 SLT KECCAK256 PUSH15 0x391F5957A8819F97D8B8956BBD1C88 SHR 0xCF PUSH24 0x8507D08B09CD413E8780C7148264736F6C63430008180033 "
        },
        "methodIdentifiers": {
          "accrueInterest(uint256,uint256,uint256)": "de251fb6",
          "yearlyRateToRay(uint256)": "060614cb"
        }
      }
    }
  }
}