{
  "_format": "hh-sol-artifact-1",
  "contractName": "ArtistTokenFactory",
  "sourceName": "contracts/ArtistTokenFactory.sol",
  "abi": [
    {
      "anonymous": false,
      "inputs": [
        {
          "indexed": true,
          "internalType": "address",
          "name": "tokenAddress",
          "type": "address"
        },
        {
          "indexed": false,
          "internalType": "string",
          "name": "artist",
          "type": "string"
        },
        {
          "indexed": false,
          "internalType": "string",
          "name": "spotify",
          "type": "string"
        }
      ],
      "name": "TokenCreated",
      "type": "event"
    },
    {
      "inputs": [
        {
          "internalType": "uint256",
          "name": "",
          "type": "uint256"
        }
      ],
      "name": "artistTokens",
      "outputs": [
        {
          "internalType": "address",
          "name": "",
          "type": "address"
        }
      ],
      "stateMutability": "view",
      "type": "function"
    },
    {
      "inputs": [
        {
          "internalType": "string",
          "name": "name",
          "type": "string"
        },
        {
          "internalType": "string",
          "name": "symbol",
          "type": "string"
        },
        {
          "internalType": "uint256",
          "name": "initialSupply",
          "type": "uint256"
        },
        {
          "internalType": "string",
          "name": "artist",
          "type": "string"
        },
        {
          "internalType": "string",
          "name": "spotify",
          "type": "string"
        }
      ],
      "name": "createToken",
      "outputs": [
        {
          "internalType": "address",
          "name": "",
          "type": "address"
        }
      ],
      "stateMutability": "nonpayable",
      "type": "function"
    },
    {
      "inputs": [
        {
          "internalType": "uint256",
          "name": "index",
          "type": "uint256"
        }
      ],
      "name": "getTokenAddress",
      "outputs": [
        {
          "internalType": "address",
          "name": "",
          "type": "address"
        }
      ],
      "stateMutability": "view",
      "type": "function"
    },
    {
      "inputs": [],
      "name": "getTokenCount",
      "outputs": [
        {
          "internalType": "uint256",
          "name": "",
          "type": "uint256"
        }
      ],
      "stateMutability": "view",
      "type": "function"
    }
  ],
  "bytecode": "0x608060405234801561001057600080fd5b5061454b806100206000396000f3fe60806040523480156200001157600080fd5b5060043610620000525760003560e01c80636525e7dd146200005757806367ccdf38146200008d57806378a8956714620000c3578063b1821e7714620000e5575b600080fd5b6200007560048036038101906200006f919062000362565b6200011b565b604051620000849190620003d9565b60405180910390f35b620000ab6004803603810190620000a5919062000362565b6200015b565b604051620000ba9190620003d9565b60405180910390f35b620000cd620001ef565b604051620000dc919062000407565b60405180910390f35b620001036004803603810190620000fd919062000586565b620001fb565b604051620001129190620003d9565b60405180910390f35b600081815481106200012c57600080fd5b906000526020600020016000915054906101000a900473ffffffffffffffffffffffffffffffffffffffff1681565b600080805490508210620001a6576040517f08c379a00000000000000000000000000000000000000000000000000000000081526004016200019d90620006eb565b60405180910390fd5b60008281548110620001bd57620001bc6200070d565b5b9060005260206000200160009054906101000a900473ffffffffffffffffffffffffffffffffffffffff169050919050565b60008080549050905090565b600080338787878787604051620002129062000305565b6200022396959493929190620007b4565b604051809103906000f08015801562000240573d6000803e3d6000fd5b5090506000819080600181540180825580915050600190039060005260206000200160009091909190916101000a81548173ffffffffffffffffffffffffffffffffffffffff021916908373ffffffffffffffffffffffffffffffffffffffff1602179055508073ffffffffffffffffffffffffffffffffffffffff167fffc04f682c7b287e4b552dacd4b833d7c33dc0549cd6da84388408e4830c05628585604051620002f09291906200083d565b60405180910390a28091505095945050505050565b613c9d806200087983390190565b6000604051905090565b600080fd5b600080fd5b6000819050919050565b6200033c8162000327565b81146200034857600080fd5b50565b6000813590506200035c8162000331565b92915050565b6000602082840312156200037b576200037a6200031d565b5b60006200038b848285016200034b565b91505092915050565b600073ffffffffffffffffffffffffffffffffffffffff82169050919050565b6000620003c18262000394565b9050919050565b620003d381620003b4565b82525050565b6000602082019050620003f06000830184620003c8565b92915050565b620004018162000327565b82525050565b60006020820190506200041e6000830184620003f6565b92915050565b600080fd5b600080fd5b6000601f19601f8301169050919050565b7f4e487b7100000000000000000000000000000000000000000000000000000000600052604160045260246000fd5b62000479826200042e565b810181811067ffffffffffffffff821117156200049b576200049a6200043f565b5b80604052505050565b6000620004b062000313565b9050620004be82826200046e565b919050565b600067ffffffffffffffff821115620004e157620004e06200043f565b5b620004ec826200042e565b9050602081019050919050565b82818337600083830152505050565b60006200051f6200051984620004c3565b620004a4565b9050828152602081018484840111156200053e576200053d62000429565b5b6200054b848285620004f9565b509392505050565b600082601f8301126200056b576200056a62000424565b5b81356200057d84826020860162000508565b91505092915050565b600080600080600060a08688031215620005a557620005a46200031d565b5b600086013567ffffffffffffffff811115620005c657620005c562000322565b5b620005d48882890162000553565b955050602086013567ffffffffffffffff811115620005f857620005f762000322565b5b620006068882890162000553565b945050604062000619888289016200034b565b935050606086013567ffffffffffffffff8111156200063d576200063c62000322565b5b6200064b8882890162000553565b925050608086013567ffffffffffffffff8111156200066f576200066e62000322565b5b6200067d8882890162000553565b9150509295509295909350565b600082825260208201905092915050565b7f496e646578206f7574206f6620626f756e647300000000000000000000000000600082015250565b6000620006d36013836200068a565b9150620006e0826200069b565b602082019050919050565b600060208201905081810360008301526200070681620006c4565b9050919050565b7f4e487b7100000000000000000000000000000000000000000000000000000000600052603260045260246000fd5b600081519050919050565b60005b83811015620007675780820151818401526020810190506200074a565b60008484015250505050565b600062000780826200073c565b6200078c81856200068a565b93506200079e81856020860162000747565b620007a9816200042e565b840191505092915050565b600060c082019050620007cb6000830189620003c8565b8181036020830152620007df818862000773565b90508181036040830152620007f5818762000773565b9050620008066060830186620003f6565b81810360808301526200081a818562000773565b905081810360a083015262000830818462000773565b9050979650505050505050565b6000604082019050818103600083015262000859818562000773565b905081810360208301526200086f818462000773565b9050939250505056fe6101606040523480156200001257600080fd5b5060405162003c9d38038062003c9d8339818101604052810190620000389190620009e8565b84806040518060400160405280600181526020017f310000000000000000000000000000000000000000000000000000000000000081525084848a8a8a816003908162000086919062000d41565b50806004908162000098919062000d41565b5050506000600560006101000a81548160ff021916908315150217905550600073ffffffffffffffffffffffffffffffffffffffff168173ffffffffffffffffffffffffffffffffffffffff16036200012b5760006040517f1e4fbdf700000000000000000000000000000000000000000000000000000000815260040162000122919062000e39565b60405180910390fd5b6200013c816200025c60201b60201c565b5081600690816200014e919062000d41565b50806007908162000160919062000d41565b505050620001796008836200032260201b90919060201c565b6101208181525050620001976009826200032260201b90919060201c565b6101408181525050818051906020012060e08181525050808051906020012061010081815250504660a08181525050620001d66200037a60201b60201c565b608081815250503073ffffffffffffffffffffffffffffffffffffffff1660c08173ffffffffffffffffffffffffffffffffffffffff1681525050505050620002508662000229620003d760201b60201c565b600a62000237919062000fe6565b8562000244919062001037565b620003e060201b60201c565b505050505050620012b8565b6000600560019054906101000a900473ffffffffffffffffffffffffffffffffffffffff16905081600560016101000a81548173ffffffffffffffffffffffffffffffffffffffff021916908373ffffffffffffffffffffffffffffffffffffffff1602179055508173ffffffffffffffffffffffffffffffffffffffff168173ffffffffffffffffffffffffffffffffffffffff167f8be0079c531659141344cd1fd0a4f28419497f9722a3daafe3b4186f6b6457e060405160405180910390a35050565b6000602083511015620003485762000340836200046d60201b60201c565b905062000374565b826200035a83620004da60201b60201c565b60000190816200036b919062000d41565b5060ff60001b90505b92915050565b60007f8b73c3c69bb8fe3d512ecc4cf759cc79239f7b179b0ffacaa9a75d522b39400f60e051610100514630604051602001620003bc959493929190620010ae565b60405160208183030381529060405280519060200120905090565b60006012905090565b600073ffffffffffffffffffffffffffffffffffffffff168273ffffffffffffffffffffffffffffffffffffffff1603620004555760006040517fec442f050000000000000000000000000000000000000000000000000000000081526004016200044c919062000e39565b60405180910390fd5b6200046960008383620004e460201b60201c565b5050565b600080829050601f81511115620004bd57826040517f305a27a9000000000000000000000000000000000000000000000000000000008152600401620004b491906200115d565b60405180910390fd5b805181620004cb90620011b3565b60001c1760001b915050919050565b6000819050919050565b620004f7838383620004fc60201b60201c565b505050565b6200050c6200052460201b60201c565b6200051f8383836200056e60201b60201c565b505050565b620005346200079e60201b60201c565b156200056c576040517fd93c066500000000000000000000000000000000000000000000000000000000815260040160405180910390fd5b565b600073ffffffffffffffffffffffffffffffffffffffff168373ffffffffffffffffffffffffffffffffffffffff1603620005c4578060026000828254620005b7919062001223565b925050819055506200069a565b60008060008573ffffffffffffffffffffffffffffffffffffffff1673ffffffffffffffffffffffffffffffffffffffff1681526020019081526020016000205490508181101562000653578381836040517fe450d38c0000000000000000000000000000000000000000000000000000000081526004016200064a939291906200125e565b60405180910390fd5b8181036000808673ffffffffffffffffffffffffffffffffffffffff1673ffffffffffffffffffffffffffffffffffffffff16815260200190815260200160002081905550505b600073ffffffffffffffffffffffffffffffffffffffff168273ffffffffffffffffffffffffffffffffffffffff1603620006e5578060026000828254039250508190555062000732565b806000808473ffffffffffffffffffffffffffffffffffffffff1673ffffffffffffffffffffffffffffffffffffffff168152602001908152602001600020600082825401925050819055505b8173ffffffffffffffffffffffffffffffffffffffff168373ffffffffffffffffffffffffffffffffffffffff167fddf252ad1be2c89b69c2b068fc378daa952ba7f163c4a11628f55a4df523b3ef836040516200079191906200129b565b60405180910390a3505050565b6000600560009054906101000a900460ff16905090565b6000604051905090565b600080fd5b600080fd5b600073ffffffffffffffffffffffffffffffffffffffff82169050919050565b6000620007f682620007c9565b9050919050565b6200080881620007e9565b81146200081457600080fd5b50565b6000815190506200082881620007fd565b92915050565b600080fd5b600080fd5b6000601f19601f8301169050919050565b7f4e487b7100000000000000000000000000000000000000000000000000000000600052604160045260246000fd5b620008838262000838565b810181811067ffffffffffffffff82111715620008a557620008a462000849565b5b80604052505050565b6000620008ba620007b5565b9050620008c8828262000878565b919050565b600067ffffffffffffffff821115620008eb57620008ea62000849565b5b620008f68262000838565b9050602081019050919050565b60005b838110156200092357808201518184015260208101905062000906565b60008484015250505050565b6000620009466200094084620008cd565b620008ae565b90508281526020810184848401111562000965576200096462000833565b5b6200097284828562000903565b509392505050565b600082601f8301126200099257620009916200082e565b5b8151620009a48482602086016200092f565b91505092915050565b6000819050919050565b620009c281620009ad565b8114620009ce57600080fd5b50565b600081519050620009e281620009b7565b92915050565b60008060008060008060c0878903121562000a085762000a07620007bf565b5b600062000a1889828a0162000817565b965050602087015167ffffffffffffffff81111562000a3c5762000a3b620007c4565b5b62000a4a89828a016200097a565b955050604087015167ffffffffffffffff81111562000a6e5762000a6d620007c4565b5b62000a7c89828a016200097a565b945050606062000a8f89828a01620009d1565b935050608087015167ffffffffffffffff81111562000ab35762000ab2620007c4565b5b62000ac189828a016200097a565b92505060a087015167ffffffffffffffff81111562000ae55762000ae4620007c4565b5b62000af389828a016200097a565b9150509295509295509295565b600081519050919050565b7f4e487b7100000000000000000000000000000000000000000000000000000000600052602260045260246000fd5b6000600282049050600182168062000b5357607f821691505b60208210810362000b695762000b6862000b0b565b5b50919050565b60008190508160005260206000209050919050565b60006020601f8301049050919050565b600082821b905092915050565b60006008830262000bd37fffffffffffffffffffffffffffffffffffffffffffffffffffffffffffffffff8262000b94565b62000bdf868362000b94565b95508019841693508086168417925050509392505050565b6000819050919050565b600062000c2262000c1c62000c1684620009ad565b62000bf7565b620009ad565b9050919050565b6000819050919050565b62000c3e8362000c01565b62000c5662000c4d8262000c29565b84845462000ba1565b825550505050565b600090565b62000c6d62000c5e565b62000c7a81848462000c33565b505050565b5b8181101562000ca25762000c9660008262000c63565b60018101905062000c80565b5050565b601f82111562000cf15762000cbb8162000b6f565b62000cc68462000b84565b8101602085101562000cd6578190505b62000cee62000ce58562000b84565b83018262000c7f565b50505b505050565b600082821c905092915050565b600062000d166000198460080262000cf6565b1980831691505092915050565b600062000d31838362000d03565b9150826002028217905092915050565b62000d4c8262000b00565b67ffffffffffffffff81111562000d685762000d6762000849565b5b62000d74825462000b3a565b62000d8182828562000ca6565b600060209050601f83116001811462000db9576000841562000da4578287015190505b62000db0858262000d23565b86555062000e20565b601f19841662000dc98662000b6f565b60005b8281101562000df35784890151825560018201915060208501945060208101905062000dcc565b8683101562000e13578489015162000e0f601f89168262000d03565b8355505b6001600288020188555050505b505050505050565b62000e3381620007e9565b82525050565b600060208201905062000e50600083018462000e28565b92915050565b7f4e487b7100000000000000000000000000000000000000000000000000000000600052601160045260246000fd5b60008160011c9050919050565b6000808291508390505b600185111562000ee45780860481111562000ebc5762000ebb62000e56565b5b600185161562000ecc5780820291505b808102905062000edc8562000e85565b945062000e9c565b94509492505050565b60008262000eff576001905062000fd2565b8162000f0f576000905062000fd2565b816001811462000f28576002811462000f335762000f69565b600191505062000fd2565b60ff84111562000f485762000f4762000e56565b5b8360020a91508482111562000f625762000f6162000e56565b5b5062000fd2565b5060208310610133831016604e8410600b841016171562000fa35782820a90508381111562000f9d5762000f9c62000e56565b5b62000fd2565b62000fb2848484600162000e92565b9250905081840481111562000fcc5762000fcb62000e56565b5b81810290505b9392505050565b600060ff82169050919050565b600062000ff382620009ad565b9150620010008362000fd9565b92506200102f7fffffffffffffffffffffffffffffffffffffffffffffffffffffffffffffffff848462000eed565b905092915050565b60006200104482620009ad565b91506200105183620009ad565b92508282026200106181620009ad565b915082820484148315176200107b576200107a62000e56565b5b5092915050565b6000819050919050565b620010978162001082565b82525050565b620010a881620009ad565b82525050565b600060a082019050620010c560008301886200108c565b620010d460208301876200108c565b620010e360408301866200108c565b620010f260608301856200109d565b62001101608083018462000e28565b9695505050505050565b600082825260208201905092915050565b6000620011298262000b00565b6200113581856200110b565b93506200114781856020860162000903565b620011528162000838565b840191505092915050565b600060208201905081810360008301526200117981846200111c565b905092915050565b600081519050919050565b6000819050602082019050919050565b6000620011aa825162001082565b80915050919050565b6000620011c08262001181565b82620011cc846200118c565b9050620011d9816200119c565b925060208210156200121c57620012177fffffffffffffffffffffffffffffffffffffffffffffffffffffffffffffffff8360200360080262000b94565b831692505b5050919050565b60006200123082620009ad565b91506200123d83620009ad565b925082820190508082111562001258576200125762000e56565b5b92915050565b600060608201905062001275600083018662000e28565b6200128460208301856200109d565b6200129360408301846200109d565b949350505050565b6000602082019050620012b260008301846200109d565b92915050565b60805160a05160c05160e05161010051610120516101405161298a6200131360003960006112ff015260006112c4015260006115ff015260006115de01526000610ea801526000610efe01526000610f27015261298a6000f3fe608060405234801561001057600080fd5b50600436106101c45760003560e01c806379cc6790116100f9578063a52e413811610097578063c47f002711610071578063c47f0027146104b1578063d505accf146104cd578063dd62ed3e146104e9578063f2fde38b14610519576101c4565b8063a52e413814610449578063a9059cbb14610465578063b84c824614610495576101c4565b806384b0196e116100d357806384b0196e146103cb578063889d8dd1146103ef5780638da5cb5b1461040d57806395d89b411461042b576101c4565b806379cc6790146103755780637ecebe00146103915780638456cb59146103c1576101c4565b806340c10f19116101665780635c975abb116101405780635c975abb1461030157806364a7a6fa1461031f57806370a082311461033b578063715018a61461036b576101c4565b806340c10f19146102ab57806342966c68146102c757806343bc1612146102e3576101c4565b806323b872dd116101a257806323b872dd14610235578063313ce567146102655780633644e515146102835780633f4ba83a146102a1576101c4565b806306fdde03146101c9578063095ea7b3146101e757806318160ddd14610217575b600080fd5b6101d1610535565b6040516101de9190611daa565b60405180910390f35b61020160048036038101906101fc9190611e74565b6105c7565b60405161020e9190611ecf565b60405180910390f35b61021f6105ea565b60405161022c9190611ef9565b60405180910390f35b61024f600480360381019061024a9190611f14565b6105f4565b60405161025c9190611ecf565b60405180910390f35b61026d610623565b60405161027a9190611f83565b60405180910390f35b61028b61062c565b6040516102989190611fb7565b60405180910390f35b6102a961063b565b005b6102c560048036038101906102c09190611e74565b61064d565b005b6102e160048036038101906102dc9190611fd2565b610663565b005b6102eb610677565b6040516102f89190611daa565b60405180910390f35b610309610709565b6040516103169190611ecf565b60405180910390f35b61033960048036038101906103349190612134565b610720565b005b6103556004803603810190610350919061217d565b61073b565b6040516103629190611ef9565b60405180910390f35b610373610783565b005b61038f600480360381019061038a9190611e74565b610797565b005b6103ab60048036038101906103a6919061217d565b6107b7565b6040516103b89190611ef9565b60405180910390f35b6103c96107c9565b005b6103d36107db565b6040516103e697969594939291906122b2565b60405180910390f35b6103f7610885565b6040516104049190611daa565b60405180910390f35b610415610917565b6040516104229190612336565b60405180910390f35b610433610941565b6040516104409190611daa565b60405180910390f35b610463600480360381019061045e9190612134565b6109d3565b005b61047f600480360381019061047a9190611e74565b6109ee565b60405161048c9190611ecf565b60405180910390f35b6104af60048036038101906104aa9190612134565b610a11565b005b6104cb60048036038101906104c69190612134565b610a5b565b005b6104e760048036038101906104e291906123a9565b610aad565b005b61050360048036038101906104fe919061244b565b610bf5565b6040516105109190611ef9565b60405180910390f35b610533600480360381019061052e919061217d565b610c7c565b005b606060038054610544906124ba565b80601f0160208091040260200160405190810160405280929190818152602001828054610570906124ba565b80156105bd5780601f10610592576101008083540402835291602001916105bd565b820191906000526020600020905b8154815290600101906020018083116105a057829003601f168201915b5050505050905090565b6000806105d2610d02565b90506105df818585610d0a565b600191505092915050565b6000600254905090565b6000806105ff610d02565b905061060c858285610d1c565b610617858585610db0565b60019150509392505050565b60006012905090565b6000610636610ea4565b905090565b610643610f5b565b61064b610fe2565b565b610655610f5b565b61065f8282611045565b5050565b61067461066e610d02565b826110c7565b50565b606060068054610686906124ba565b80601f01602080910402602001604051908101604052809291908181526020018280546106b2906124ba565b80156106ff5780601f106106d4576101008083540402835291602001916106ff565b820191906000526020600020905b8154815290600101906020018083116106e257829003601f168201915b5050505050905090565b6000600560009054906101000a900460ff16905090565b610728610f5b565b80600790816107379190612697565b5050565b60008060008373ffffffffffffffffffffffffffffffffffffffff1673ffffffffffffffffffffffffffffffffffffffff168152602001908152602001600020549050919050565b61078b610f5b565b6107956000611149565b565b6107a9826107a3610d02565b83610d1c565b6107b382826110c7565b5050565b60006107c28261120f565b9050919050565b6107d1610f5b565b6107d9611258565b565b6000606080600080600060606107ef6112bb565b6107f76112f6565b46306000801b600067ffffffffffffffff81111561081857610817612009565b5b6040519080825280602002602001820160405280156108465781602001602082028036833780820191505090505b507f0f00000000000000000000000000000000000000000000000000000000000000959493929190965096509650965096509650965090919293949596565b606060078054610894906124ba565b80601f01602080910402602001604051908101604052809291908181526020018280546108c0906124ba565b801561090d5780601f106108e25761010080835404028352916020019161090d565b820191906000526020600020905b8154815290600101906020018083116108f057829003601f168201915b5050505050905090565b6000600560019054906101000a900473ffffffffffffffffffffffffffffffffffffffff16905090565b606060048054610950906124ba565b80601f016020809104026020016040519081016040528092919081815260200182805461097c906124ba565b80156109c95780601f1061099e576101008083540402835291602001916109c9565b820191906000526020600020905b8154815290600101906020018083116109ac57829003601f168201915b5050505050905090565b6109db610f5b565b80600690816109ea9190612697565b5050565b6000806109f9610d02565b9050610a06818585610db0565b600191505092915050565b80600c9081610a209190612697565b507f57c940aa14b51ea5f96b7a2bea757ce355d996e2c5d7a3c68aff1c75a326269b81604051610a509190611daa565b60405180910390a150565b610a63610f5b565b80600b9081610a729190612697565b507f4737457377f528cc8afd815f73ecb8b05df80d047dbffc41c17750a4033592bc81604051610aa29190611daa565b60405180910390a150565b83421115610af257836040517f62791302000000000000000000000000000000000000000000000000000000008152600401610ae99190611ef9565b60405180910390fd5b60007f6e71edae12b1b97f4d1f60370fef10105fa2faae0126114a169c64845d6126c9888888610b218c611331565b89604051602001610b3796959493929190612769565b6040516020818303038152906040528051906020012090506000610b5a82611388565b90506000610b6a828787876113a2565b90508973ffffffffffffffffffffffffffffffffffffffff168173ffffffffffffffffffffffffffffffffffffffff1614610bde57808a6040517f4b800e46000000000000000000000000000000000000000000000000000000008152600401610bd59291906127ca565b60405180910390fd5b610be98a8a8a610d0a565b50505050505050505050565b6000600160008473ffffffffffffffffffffffffffffffffffffffff1673ffffffffffffffffffffffffffffffffffffffff16815260200190815260200160002060008373ffffffffffffffffffffffffffffffffffffffff1673ffffffffffffffffffffffffffffffffffffffff16815260200190815260200160002054905092915050565b610c84610f5b565b600073ffffffffffffffffffffffffffffffffffffffff168173ffffffffffffffffffffffffffffffffffffffff1603610cf65760006040517f1e4fbdf7000000000000000000000000000000000000000000000000000000008152600401610ced9190612336565b60405180910390fd5b610cff81611149565b50565b600033905090565b610d1783838360016113d2565b505050565b6000610d288484610bf5565b90507fffffffffffffffffffffffffffffffffffffffffffffffffffffffffffffffff8114610daa5781811015610d9a578281836040517ffb8f41b2000000000000000000000000000000000000000000000000000000008152600401610d91939291906127f3565b60405180910390fd5b610da9848484840360006113d2565b5b50505050565b600073ffffffffffffffffffffffffffffffffffffffff168373ffffffffffffffffffffffffffffffffffffffff1603610e225760006040517f96c6fd1e000000000000000000000000000000000000000000000000000000008152600401610e199190612336565b60405180910390fd5b600073ffffffffffffffffffffffffffffffffffffffff168273ffffffffffffffffffffffffffffffffffffffff1603610e945760006040517fec442f05000000000000000000000000000000000000000000000000000000008152600401610e8b9190612336565b60405180910390fd5b610e9f8383836115a9565b505050565b60007f000000000000000000000000000000000000000000000000000000000000000073ffffffffffffffffffffffffffffffffffffffff163073ffffffffffffffffffffffffffffffffffffffff16148015610f2057507f000000000000000000000000000000000000000000000000000000000000000046145b15610f4d577f00000000000000000000000000000000000000000000000000000000000000009050610f58565b610f556115b9565b90505b90565b610f63610d02565b73ffffffffffffffffffffffffffffffffffffffff16610f81610917565b73ffffffffffffffffffffffffffffffffffffffff1614610fe057610fa4610d02565b6040517f118cdaa7000000000000000000000000000000000000000000000000000000008152600401610fd79190612336565b60405180910390fd5b565b610fea61164f565b6000600560006101000a81548160ff0219169083151502179055507f5db9ee0a495bf2e6ff9c91a7834c1ba4fdd244a5e8aa4e537bd38aeae4b073aa61102e610d02565b60405161103b9190612336565b60405180910390a1565b600073ffffffffffffffffffffffffffffffffffffffff168273ffffffffffffffffffffffffffffffffffffffff16036110b75760006040517fec442f050000000000000000000000000000000000000000000000000000000081526004016110ae9190612336565b60405180910390fd5b6110c3600083836115a9565b5050565b600073ffffffffffffffffffffffffffffffffffffffff168273ffffffffffffffffffffffffffffffffffffffff16036111395760006040517f96c6fd1e0000000000000000000000000000000000000000000000000000000081526004016111309190612336565b60405180910390fd5b611145826000836115a9565b5050565b6000600560019054906101000a900473ffffffffffffffffffffffffffffffffffffffff16905081600560016101000a81548173ffffffffffffffffffffffffffffffffffffffff021916908373ffffffffffffffffffffffffffffffffffffffff1602179055508173ffffffffffffffffffffffffffffffffffffffff168173ffffffffffffffffffffffffffffffffffffffff167f8be0079c531659141344cd1fd0a4f28419497f9722a3daafe3b4186f6b6457e060405160405180910390a35050565b6000600a60008373ffffffffffffffffffffffffffffffffffffffff1673ffffffffffffffffffffffffffffffffffffffff168152602001908152602001600020549050919050565b61126061168f565b6001600560006101000a81548160ff0219169083151502179055507f62e78cea01bee320cd4e420270b5ea74000d11b0c9f74754ebdbfc544b05a2586112a4610d02565b6040516112b19190612336565b60405180910390a1565b60606112f160087f00000000000000000000000000000000000000000000000000000000000000006116d090919063ffffffff16565b905090565b606061132c60097f00000000000000000000000000000000000000000000000000000000000000006116d090919063ffffffff16565b905090565b6000600a60008373ffffffffffffffffffffffffffffffffffffffff1673ffffffffffffffffffffffffffffffffffffffff1681526020019081526020016000206000815480929190600101919050559050919050565b600061139b611395610ea4565b83611780565b9050919050565b6000806000806113b4888888886117c1565b9250925092506113c482826118b5565b829350505050949350505050565b600073ffffffffffffffffffffffffffffffffffffffff168473ffffffffffffffffffffffffffffffffffffffff16036114445760006040517fe602df0500000000000000000000000000000000000000000000000000000000815260040161143b9190612336565b60405180910390fd5b600073ffffffffffffffffffffffffffffffffffffffff168373ffffffffffffffffffffffffffffffffffffffff16036114b65760006040517f94280d620000000000000000000000000000000000000000000000000000000081526004016114ad9190612336565b60405180910390fd5b81600160008673ffffffffffffffffffffffffffffffffffffffff1673ffffffffffffffffffffffffffffffffffffffff16815260200190815260200160002060008573ffffffffffffffffffffffffffffffffffffffff1673ffffffffffffffffffffffffffffffffffffffff1681526020019081526020016000208190555080156115a3578273ffffffffffffffffffffffffffffffffffffffff168473ffffffffffffffffffffffffffffffffffffffff167f8c5be1e5ebec7d5bd14f71427d1e84f3dd0314c0f7b2291e5b200ac8c7c3b9258460405161159a9190611ef9565b60405180910390a35b50505050565b6115b4838383611a19565b505050565b60007f8b73c3c69bb8fe3d512ecc4cf759cc79239f7b179b0ffacaa9a75d522b39400f7f00000000000000000000000000000000000000000000000000000000000000007f0000000000000000000000000000000000000000000000000000000000000000463060405160200161163495949392919061282a565b60405160208183030381529060405280519060200120905090565b611657610709565b61168d576040517f8dfc202b00000000000000000000000000000000000000000000000000000000815260040160405180910390fd5b565b611697610709565b156116ce576040517fd93c066500000000000000000000000000000000000000000000000000000000815260040160405180910390fd5b565b606060ff60001b83146116ed576116e683611a31565b905061177a565b8180546116f9906124ba565b80601f0160208091040260200160405190810160405280929190818152602001828054611725906124ba565b80156117725780601f1061174757610100808354040283529160200191611772565b820191906000526020600020905b81548152906001019060200180831161175557829003601f168201915b505050505090505b92915050565b60006040517f190100000000000000000000000000000000000000000000000000000000000081528360028201528260228201526042812091505092915050565b60008060007f7fffffffffffffffffffffffffffffff5d576e7357a4501ddfe92f46681b20a08460001c11156118015760006003859250925092506118ab565b600060018888888860405160008152602001604052604051611826949392919061287d565b6020604051602081039080840390855afa158015611848573d6000803e3d6000fd5b505050602060405103519050600073ffffffffffffffffffffffffffffffffffffffff168173ffffffffffffffffffffffffffffffffffffffff160361189c57600060016000801b935093509350506118ab565b8060008060001b935093509350505b9450945094915050565b600060038111156118c9576118c86128c2565b5b8260038111156118dc576118db6128c2565b5b0315611a1557600160038111156118f6576118f56128c2565b5b826003811115611909576119086128c2565b5b03611940576040517ff645eedf00000000000000000000000000000000000000000000000000000000815260040160405180910390fd5b60026003811115611954576119536128c2565b5b826003811115611967576119666128c2565b5b036119ac578060001c6040517ffce698f70000000000000000000000000000000000000000000000000000000081526004016119a39190611ef9565b60405180910390fd5b6003808111156119bf576119be6128c2565b5b8260038111156119d2576119d16128c2565b5b03611a1457806040517fd78bce0c000000000000000000000000000000000000000000000000000000008152600401611a0b9190611fb7565b60405180910390fd5b5b5050565b611a2161168f565b611a2c838383611aa5565b505050565b60606000611a3e83611cca565b90506000602067ffffffffffffffff811115611a5d57611a5c612009565b5b6040519080825280601f01601f191660200182016040528015611a8f5781602001600182028036833780820191505090505b5090508181528360208201528092505050919050565b600073ffffffffffffffffffffffffffffffffffffffff168373ffffffffffffffffffffffffffffffffffffffff1603611af7578060026000828254611aeb9190612920565b92505081905550611bca565b60008060008573ffffffffffffffffffffffffffffffffffffffff1673ffffffffffffffffffffffffffffffffffffffff16815260200190815260200160002054905081811015611b83578381836040517fe450d38c000000000000000000000000000000000000000000000000000000008152600401611b7a939291906127f3565b60405180910390fd5b8181036000808673ffffffffffffffffffffffffffffffffffffffff1673ffffffffffffffffffffffffffffffffffffffff16815260200190815260200160002081905550505b600073ffffffffffffffffffffffffffffffffffffffff168273ffffffffffffffffffffffffffffffffffffffff1603611c135780600260008282540392505081905550611c60565b806000808473ffffffffffffffffffffffffffffffffffffffff1673ffffffffffffffffffffffffffffffffffffffff168152602001908152602001600020600082825401925050819055505b8173ffffffffffffffffffffffffffffffffffffffff168373ffffffffffffffffffffffffffffffffffffffff167fddf252ad1be2c89b69c2b068fc378daa952ba7f163c4a11628f55a4df523b3ef83604051611cbd9190611ef9565b60405180910390a3505050565b60008060ff8360001c169050601f811115611d11576040517fb3512b0c00000000000000000000000000000000000000000000000000000000815260040160405180910390fd5b80915050919050565b600081519050919050565b600082825260208201905092915050565b60005b83811015611d54578082015181840152602081019050611d39565b60008484015250505050565b6000601f19601f8301169050919050565b6000611d7c82611d1a565b611d868185611d25565b9350611d96818560208601611d36565b611d9f81611d60565b840191505092915050565b60006020820190508181036000830152611dc48184611d71565b905092915050565b6000604051905090565b600080fd5b600080fd5b600073ffffffffffffffffffffffffffffffffffffffff82169050919050565b6000611e0b82611de0565b9050919050565b611e1b81611e00565b8114611e2657600080fd5b50565b600081359050611e3881611e12565b92915050565b6000819050919050565b611e5181611e3e565b8114611e5c57600080fd5b50565b600081359050611e6e81611e48565b92915050565b60008060408385031215611e8b57611e8a611dd6565b5b6000611e9985828601611e29565b9250506020611eaa85828601611e5f565b9150509250929050565b60008115159050919050565b611ec981611eb4565b82525050565b6000602082019050611ee46000830184611ec0565b92915050565b611ef381611e3e565b82525050565b6000602082019050611f0e6000830184611eea565b92915050565b600080600060608486031215611f2d57611f2c611dd6565b5b6000611f3b86828701611e29565b9350506020611f4c86828701611e29565b9250506040611f5d86828701611e5f565b9150509250925092565b600060ff82169050919050565b611f7d81611f67565b82525050565b6000602082019050611f986000830184611f74565b92915050565b6000819050919050565b611fb181611f9e565b82525050565b6000602082019050611fcc6000830184611fa8565b92915050565b600060208284031215611fe857611fe7611dd6565b5b6000611ff684828501611e5f565b91505092915050565b600080fd5b600080fd5b7f4e487b7100000000000000000000000000000000000000000000000000000000600052604160045260246000fd5b61204182611d60565b810181811067ffffffffffffffff821117156120605761205f612009565b5b80604052505050565b6000612073611dcc565b905061207f8282612038565b919050565b600067ffffffffffffffff82111561209f5761209e612009565b5b6120a882611d60565b9050602081019050919050565b82818337600083830152505050565b60006120d76120d284612084565b612069565b9050828152602081018484840111156120f3576120f2612004565b5b6120fe8482856120b5565b509392505050565b600082601f83011261211b5761211a611fff565b5b813561212b8482602086016120c4565b91505092915050565b60006020828403121561214a57612149611dd6565b5b600082013567ffffffffffffffff81111561216857612167611ddb565b5b61217484828501612106565b91505092915050565b60006020828403121561219357612192611dd6565b5b60006121a184828501611e29565b91505092915050565b60007fff0000000000000000000000000000000000000000000000000000000000000082169050919050565b6121df816121aa565b82525050565b6121ee81611e00565b82525050565b600081519050919050565b600082825260208201905092915050565b6000819050602082019050919050565b61222981611e3e565b82525050565b600061223b8383612220565b60208301905092915050565b6000602082019050919050565b600061225f826121f4565b61226981856121ff565b935061227483612210565b8060005b838110156122a557815161228c888261222f565b975061229783612247565b925050600181019050612278565b5085935050505092915050565b600060e0820190506122c7600083018a6121d6565b81810360208301526122d98189611d71565b905081810360408301526122ed8188611d71565b90506122fc6060830187611eea565b61230960808301866121e5565b61231660a0830185611fa8565b81810360c08301526123288184612254565b905098975050505050505050565b600060208201905061234b60008301846121e5565b92915050565b61235a81611f67565b811461236557600080fd5b50565b60008135905061237781612351565b92915050565b61238681611f9e565b811461239157600080fd5b50565b6000813590506123a38161237d565b92915050565b600080600080600080600060e0888a0312156123c8576123c7611dd6565b5b60006123d68a828b01611e29565b97505060206123e78a828b01611e29565b96505060406123f88a828b01611e5f565b95505060606124098a828b01611e5f565b945050608061241a8a828b01612368565b93505060a061242b8a828b01612394565b92505060c061243c8a828b01612394565b91505092959891949750929550565b6000806040838503121561246257612461611dd6565b5b600061247085828601611e29565b925050602061248185828601611e29565b9150509250929050565b7f4e487b7100000000000000000000000000000000000000000000000000000000600052602260045260246000fd5b600060028204905060018216806124d257607f821691505b6020821081036124e5576124e461248b565b5b50919050565b60008190508160005260206000209050919050565b60006020601f8301049050919050565b600082821b905092915050565b60006008830261254d7fffffffffffffffffffffffffffffffffffffffffffffffffffffffffffffffff82612510565b6125578683612510565b95508019841693508086168417925050509392505050565b6000819050919050565b600061259461258f61258a84611e3e565b61256f565b611e3e565b9050919050565b6000819050919050565b6125ae83612579565b6125c26125ba8261259b565b84845461251d565b825550505050565b600090565b6125d76125ca565b6125e28184846125a5565b505050565b5b81811015612606576125fb6000826125cf565b6001810190506125e8565b5050565b601f82111561264b5761261c816124eb565b61262584612500565b81016020851015612634578190505b61264861264085612500565b8301826125e7565b50505b505050565b600082821c905092915050565b600061266e60001984600802612650565b1980831691505092915050565b6000612687838361265d565b9150826002028217905092915050565b6126a082611d1a565b67ffffffffffffffff8111156126b9576126b8612009565b5b6126c382546124ba565b6126ce82828561260a565b600060209050601f83116001811461270157600084156126ef578287015190505b6126f9858261267b565b865550612761565b601f19841661270f866124eb565b60005b8281101561273757848901518255600182019150602085019450602081019050612712565b868310156127545784890151612750601f89168261265d565b8355505b6001600288020188555050505b505050505050565b600060c08201905061277e6000830189611fa8565b61278b60208301886121e5565b61279860408301876121e5565b6127a56060830186611eea565b6127b26080830185611eea565b6127bf60a0830184611eea565b979650505050505050565b60006040820190506127df60008301856121e5565b6127ec60208301846121e5565b9392505050565b600060608201905061280860008301866121e5565b6128156020830185611eea565b6128226040830184611eea565b949350505050565b600060a08201905061283f6000830188611fa8565b61284c6020830187611fa8565b6128596040830186611fa8565b6128666060830185611eea565b61287360808301846121e5565b9695505050505050565b60006080820190506128926000830187611fa8565b61289f6020830186611f74565b6128ac6040830185611fa8565b6128b96060830184611fa8565b95945050505050565b7f4e487b7100000000000000000000000000000000000000000000000000000000600052602160045260246000fd5b7f4e487b7100000000000000000000000000000000000000000000000000000000600052601160045260246000fd5b600061292b82611e3e565b915061293683611e3e565b925082820190508082111561294e5761294d6128f1565b5b9291505056fea26469706673582212203b930b0edd0b69bf3acf9bc18c2cecceafa8db1d591f81197da447b25892c54164736f6c63430008180033a2646970667358221220f9d8f52b61068ae0f6b596d595362fbb0a59efdf99fd368f1141848e9b63526764736f6c63430008180033",
  "linkReferences": {},
  "deployedLinkReferences": {}
}