{
  "_format": "hh-sol-artifact-1",
  "contractName": "EuterpeV0",
  "sourceName": "contracts/EuterpeV0.sol",
  "abi": [
    {
      "inputs": [],
      "stateMutability": "nonpayable",
      "type": "constructor"
    },
    {
      "inputs": [],
      "name": "ReentrancyGuardReentrantCall",
      "type": "error"
    },
    {
      "anonymous": false,
      "inputs": [
        {
          "indexed": true,
          "internalType": "address",
          "name": "investor",
          "type": "address"
        },
        {
          "indexed": false,
          "internalType": "uint256",
          "name": "tokenId",
          "type": "uint256"
        }
      ],
      "name": "WithdrawalMade",
      "type": "event"
    },
    {
      "inputs": [],
      "name": "FIFTY_ARTIST_TOKEN_YIELD_10_PERCENT_HARMONY",
      "outputs": [
        {
          "internalType": "uint256",
          "name": "",
          "type": "uint256"
        }
      ],
      "stateMutability": "view",
      "type": "function"
    },
    {
      "inputs": [],
      "name": "ONE_PERCENT_OF_YOUTUBE_VIDEO_VIEWS_REVENUE_HARMONY",
      "outputs": [
        {
          "internalType": "uint256",
          "name": "",
          "type": "uint256"
        }
      ],
      "stateMutability": "view",
      "type": "function"
    },
    {
      "inputs": [
        {
          "internalType": "uint256",
          "name": "_principal",
          "type": "uint256"
        },
        {
          "internalType": "uint256",
          "name": "_rate",
          "type": "uint256"
        },
        {
          "internalType": "uint256",
          "name": "_age",
          "type": "uint256"
        }
      ],
      "name": "accrueInterest",
      "outputs": [
        {
          "internalType": "uint256",
          "name": "",
          "type": "uint256"
        }
      ],
      "stateMutability": "pure",
      "type": "function"
    },
    {
      "inputs": [
        {
          "internalType": "address",
          "name": "",
          "type": "address"
        },
        {
          "internalType": "uint256",
          "name": "",
          "type": "uint256"
        }
      ],
      "name": "lastWithdrawalTimestamp",
      "outputs": [
        {
          "internalType": "uint256",
          "name": "",
          "type": "uint256"
        }
      ],
      "stateMutability": "view",
      "type": "function"
    },
    {
      "inputs": [
        {
          "internalType": "address",
          "name": "artistToken",
          "type": "address"
        },
        {
          "internalType": "address",
          "name": "harmonyV0",
          "type": "address"
        },
        {
          "internalType": "uint256",
          "name": "tokenId",
          "type": "uint256"
        }
      ],
      "name": "withdraw",
      "outputs": [],
      "stateMutability": "nonpayable",
      "type": "function"
    },
    {
      "inputs": [
        {
          "internalType": "uint256",
          "name": "_rateWad",
          "type": "uint256"
        }
      ],
      "name": "yearlyRateToRay",
      "outputs": [
        {
          "internalType": "uint256",
          "name": "",
          "type": "uint256"
        }
      ],
      "stateMutability": "pure",
      "type": "function"
    }
  ],
  "bytecode": "0x608060405234801561001057600080fd5b50600160008190555073f39fd6e51aad88f6f4ce6ab8827279cfffb92266600160006101000a81548173ffffffffffffffffffffffffffffffffffffffff021916908373ffffffffffffffffffffffffffffffffffffffff1602179055506115a68061007d6000396000f3fe608060405234801561001057600080fd5b50600436106100625760003560e01c8063060614cb146100675780635e29123414610097578063d9caed12146100b5578063dbf33e8d146100d1578063de251fb614610101578063f072a25a14610131575b600080fd5b610081600480360381019061007c9190610b2c565b61014f565b60405161008e9190610b68565b60405180910390f35b61009f61018f565b6040516100ac9190610b68565b60405180910390f35b6100cf60048036038101906100ca9190610be1565b610194565b005b6100eb60048036038101906100e69190610c34565b6107e5565b6040516100f89190610b68565b60405180910390f35b61011b60048036038101906101169190610c74565b61080a565b6040516101289190610b68565b60405180910390f35b610139610831565b6040516101469190610b68565b60405180910390f35b6000610188610165670de0b6b3a7640000610836565b61018361017185610836565b61017e6301e1338061084d565b61086c565b6108ac565b9050919050565b600081565b808260008173ffffffffffffffffffffffffffffffffffffffff1662fdd58e33856040518363ffffffff1660e01b81526004016101d2929190610cd6565b602060405180830381865afa1580156101ef573d6000803e3d6000fd5b505050506040513d601f19601f820116820180604052508101906102139190610d14565b11610253576040517f08c379a000000000000000000000000000000000000000000000000000000000815260040161024a90610d9e565b60405180910390fd5b61025b610905565b6000600260003373ffffffffffffffffffffffffffffffffffffffff1673ffffffffffffffffffffffffffffffffffffffff168152602001908152602001600020600085815260200190815260200160002054905060008103610337578473ffffffffffffffffffffffffffffffffffffffff16637a00937733866040518363ffffffff1660e01b81526004016102f3929190610cd6565b602060405180830381865afa158015610310573d6000803e3d6000fd5b505050506040513d601f19601f820116820180604052508101906103349190610d14565b90505b428110610379576040517f08c379a000000000000000000000000000000000000000000000000000000000815260040161037090610e0a565b60405180910390fd5b60008673ffffffffffffffffffffffffffffffffffffffff1663313ce5676040518163ffffffff1660e01b8152600401602060405180830381865afa1580156103c6573d6000803e3d6000fd5b505050506040513d601f19601f820116820180604052508101906103ea9190610e63565b60ff16905060008773ffffffffffffffffffffffffffffffffffffffff166370a08231336040518263ffffffff1660e01b815260040161042a9190610e90565b602060405180830381865afa158015610447573d6000803e3d6000fd5b505050506040513d601f19601f8201168201806040525081019061046b9190610d14565b9050600086036107335781600a610482919061100d565b603261048e9190611058565b8110156104d0576040517f08c379a00000000000000000000000000000000000000000000000000000000081526004016104c79061110c565b60405180910390fd5b60003073ffffffffffffffffffffffffffffffffffffffff1663060614cb66b1a2bc2ec500006040518263ffffffff1660e01b81526004016105129190611171565b602060405180830381865afa15801561052f573d6000803e3d6000fd5b505050506040513d601f19601f820116820180604052508101906105539190610d14565b905060008442610563919061118c565b905060003073ffffffffffffffffffffffffffffffffffffffff1663de251fb68585856040518463ffffffff1660e01b81526004016105a4939291906111c0565b602060405180830381865afa1580156105c1573d6000803e3d6000fd5b505050506040513d601f19601f820116820180604052508101906105e59190610d14565b90508a73ffffffffffffffffffffffffffffffffffffffff166323b872dd8c73ffffffffffffffffffffffffffffffffffffffff16638da5cb5b6040518163ffffffff1660e01b8152600401602060405180830381865afa15801561064e573d6000803e3d6000fd5b505050506040513d601f19601f82011682018060405250810190610672919061120c565b33846040518463ffffffff1660e01b815260040161069293929190611239565b6020604051808303816000875af11580156106b1573d6000803e3d6000fd5b505050506040513d601f19601f820116820180604052508101906106d591906112a8565b5042600260003373ffffffffffffffffffffffffffffffffffffffff1673ffffffffffffffffffffffffffffffffffffffff168152602001908152602001600020600080815260200190815260200160002081905550505050610785565b6001860361078457600015156001151514610783576040517f08c379a000000000000000000000000000000000000000000000000000000000815260040161077a90611347565b60405180910390fd5b5b5b3373ffffffffffffffffffffffffffffffffffffffff167fbc158bb64f05d6383aea69bbb0b20c1bbf4b7a18f63359c5649b7c39e29d3884876040516107cb9190610b68565b60405180910390a25050506107de61094b565b5050505050565b6002602052816000526040600020602052806000526040600020600091509150505481565b60006108286108228561081d8686610955565b6109df565b85610a2b565b90509392505050565b600181565b600061084682633b9aca00610a84565b9050919050565b6000610865826b033b2e3c9fd0803ce8000000610a84565b9050919050565b60008161089a610888856b033b2e3c9fd0803ce8000000610a84565b6002856108959190611396565b6108ac565b6108a49190611396565b905092915050565b60008282846108bb91906113c7565b91508110156108ff576040517f08c379a00000000000000000000000000000000000000000000000000000000081526004016108f690611447565b60405180910390fd5b92915050565b600260005403610941576040517f3ee5aeb500000000000000000000000000000000000000000000000000000000815260040160405180910390fd5b6002600081905550565b6001600081905550565b6000806002836109659190611467565b0361097c576b033b2e3c9fd0803ce800000061097e565b825b905060028261098d9190611396565b91505b600082146109d9576109a283846109df565b925060006002836109b39190611467565b146109c5576109c281846109df565b90505b6002826109d29190611396565b9150610990565b92915050565b60006b033b2e3c9fd0803ce8000000610a196109fb8585610a84565b60026b033b2e3c9fd0803ce8000000610a149190611396565b6108ac565b610a239190611396565b905092915050565b6000828284610a3a919061118c565b9150811115610a7e576040517f08c379a0000000000000000000000000000000000000000000000000000000008152600401610a75906114e4565b60405180910390fd5b92915050565b600080821480610aac575082828385610a9d9190611058565b925082610aaa9190611396565b145b610aeb576040517f08c379a0000000000000000000000000000000000000000000000000000000008152600401610ae290611550565b60405180910390fd5b92915050565b600080fd5b6000819050919050565b610b0981610af6565b8114610b1457600080fd5b50565b600081359050610b2681610b00565b92915050565b600060208284031215610b4257610b41610af1565b5b6000610b5084828501610b17565b91505092915050565b610b6281610af6565b82525050565b6000602082019050610b7d6000830184610b59565b92915050565b600073ffffffffffffffffffffffffffffffffffffffff82169050919050565b6000610bae82610b83565b9050919050565b610bbe81610ba3565b8114610bc957600080fd5b50565b600081359050610bdb81610bb5565b92915050565b600080600060608486031215610bfa57610bf9610af1565b5b6000610c0886828701610bcc565b9350506020610c1986828701610bcc565b9250506040610c2a86828701610b17565b9150509250925092565b60008060408385031215610c4b57610c4a610af1565b5b6000610c5985828601610bcc565b9250506020610c6a85828601610b17565b9150509250929050565b600080600060608486031215610c8d57610c8c610af1565b5b6000610c9b86828701610b17565b9350506020610cac86828701610b17565b9250506040610cbd86828701610b17565b9150509250925092565b610cd081610ba3565b82525050565b6000604082019050610ceb6000830185610cc7565b610cf86020830184610b59565b9392505050565b600081519050610d0e81610b00565b92915050565b600060208284031215610d2a57610d29610af1565b5b6000610d3884828501610cff565b91505092915050565b600082825260208201905092915050565b7f4f6e6c79204861726d6f6e79204f776e65720000000000000000000000000000600082015250565b6000610d88601283610d41565b9150610d9382610d52565b602082019050919050565b60006020820190508181036000830152610db781610d7b565b9050919050565b7f596f752063616e6e6f74206d616b652061207769746864726177616c20796574600082015250565b6000610df4602083610d41565b9150610dff82610dbe565b602082019050919050565b60006020820190508181036000830152610e2381610de7565b9050919050565b600060ff82169050919050565b610e4081610e2a565b8114610e4b57600080fd5b50565b600081519050610e5d81610e37565b92915050565b600060208284031215610e7957610e78610af1565b5b6000610e8784828501610e4e565b91505092915050565b6000602082019050610ea56000830184610cc7565b92915050565b7f4e487b7100000000000000000000000000000000000000000000000000000000600052601160045260246000fd5b60008160011c9050919050565b6000808291508390505b6001851115610f3157808604811115610f0d57610f0c610eab565b5b6001851615610f1c5780820291505b8081029050610f2a85610eda565b9450610ef1565b94509492505050565b600082610f4a5760019050611006565b81610f585760009050611006565b8160018114610f6e5760028114610f7857610fa7565b6001915050611006565b60ff841115610f8a57610f89610eab565b5b8360020a915084821115610fa157610fa0610eab565b5b50611006565b5060208310610133831016604e8410600b8410161715610fdc5782820a905083811115610fd757610fd6610eab565b5b611006565b610fe98484846001610ee7565b9250905081840481111561100057610fff610eab565b5b81810290505b9392505050565b600061101882610af6565b915061102383610af6565b92506110507fffffffffffffffffffffffffffffffffffffffffffffffffffffffffffffffff8484610f3a565b905092915050565b600061106382610af6565b915061106e83610af6565b925082820261107c81610af6565b9150828204841483151761109357611092610eab565b5b5092915050565b7f496e73756666696369656e742061727469737420746f6b656e2062616c616e6360008201527f652c20796f7520617265206e6f7420656c696769626c65000000000000000000602082015250565b60006110f6603783610d41565b91506111018261109a565b604082019050919050565b60006020820190508181036000830152611125816110e9565b9050919050565b6000819050919050565b6000819050919050565b600061115b6111566111518461112c565b611136565b610af6565b9050919050565b61116b81611140565b82525050565b60006020820190506111866000830184611162565b92915050565b600061119782610af6565b91506111a283610af6565b92508282039050818111156111ba576111b9610eab565b5b92915050565b60006060820190506111d56000830186610b59565b6111e26020830185610b59565b6111ef6040830184610b59565b949350505050565b60008151905061120681610bb5565b92915050565b60006020828403121561122257611221610af1565b5b6000611230848285016111f7565b91505092915050565b600060608201905061124e6000830186610cc7565b61125b6020830185610cc7565b6112686040830184610b59565b949350505050565b60008115159050919050565b61128581611270565b811461129057600080fd5b50565b6000815190506112a28161127c565b92915050565b6000602082840312156112be576112bd610af1565b5b60006112cc84828501611293565b91505092915050565b7f537570706f727420666f7220596f755475626520766964656f2076696577732060008201527f726576656e756520636f6d696e6720736f6f6e00000000000000000000000000602082015250565b6000611331603383610d41565b915061133c826112d5565b604082019050919050565b6000602082019050818103600083015261136081611324565b9050919050565b7f4e487b7100000000000000000000000000000000000000000000000000000000600052601260045260246000fd5b60006113a182610af6565b91506113ac83610af6565b9250826113bc576113bb611367565b5b828204905092915050565b60006113d282610af6565b91506113dd83610af6565b92508282019050808211156113f5576113f4610eab565b5b92915050565b7f64732d6d6174682d6164642d6f766572666c6f77000000000000000000000000600082015250565b6000611431601483610d41565b915061143c826113fb565b602082019050919050565b6000602082019050818103600083015261146081611424565b9050919050565b600061147282610af6565b915061147d83610af6565b92508261148d5761148c611367565b5b828206905092915050565b7f64732d6d6174682d7375622d756e646572666c6f770000000000000000000000600082015250565b60006114ce601583610d41565b91506114d982611498565b602082019050919050565b600060208201905081810360008301526114fd816114c1565b9050919050565b7f64732d6d6174682d6d756c2d6f766572666c6f77000000000000000000000000600082015250565b600061153a601483610d41565b915061154582611504565b602082019050919050565b600060208201905081810360008301526115698161152d565b905091905056fea264697066735822122010a6ca78b7267a62d47b1b716e25ceb3edf551f2c3aa1300707731d252b85d6864736f6c63430008180033",
  "linkReferences": {},
  "deployedLinkReferences": {}
}