{
  "_format": "hh-sol-artifact-1",
  "contractName": "HarmonyV0Factory",
  "sourceName": "contracts/HarmonyV0Factory.sol",
  "abi": [
    {
      "inputs": [
        {
          "internalType": "address",
          "name": "euterpe",
          "type": "address"
        }
      ],
      "stateMutability": "nonpayable",
      "type": "constructor"
    },
    {
      "anonymous": false,
      "inputs": [
        {
          "indexed": true,
          "internalType": "address",
          "name": "harmonyAddress",
          "type": "address"
        },
        {
          "indexed": false,
          "internalType": "string",
          "name": "artist",
          "type": "string"
        },
        {
          "indexed": false,
          "internalType": "string",
          "name": "spotify",
          "type": "string"
        }
      ],
      "name": "HarmonyCreated",
      "type": "event"
    },
    {
      "inputs": [],
      "name": "EUTERPE_CONTRACT_ADDRESS",
      "outputs": [
        {
          "internalType": "address",
          "name": "",
          "type": "address"
        }
      ],
      "stateMutability": "view",
      "type": "function"
    },
    {
      "inputs": [
        {
          "internalType": "uint256",
          "name": "",
          "type": "uint256"
        }
      ],
      "name": "artistHarmonies",
      "outputs": [
        {
          "internalType": "address",
          "name": "",
          "type": "address"
        }
      ],
      "stateMutability": "view",
      "type": "function"
    },
    {
      "inputs": [
        {
          "internalType": "string",
          "name": "uri",
          "type": "string"
        },
        {
          "internalType": "string",
          "name": "artist",
          "type": "string"
        },
        {
          "internalType": "string",
          "name": "spotify",
          "type": "string"
        },
        {
          "internalType": "address",
          "name": "artistToken",
          "type": "address"
        }
      ],
      "name": "createHarmony",
      "outputs": [
        {
          "internalType": "address",
          "name": "",
          "type": "address"
        }
      ],
      "stateMutability": "nonpayable",
      "type": "function"
    },
    {
      "inputs": [
        {
          "internalType": "uint256",
          "name": "index",
          "type": "uint256"
        }
      ],
      "name": "getHarmonyAddress",
      "outputs": [
        {
          "internalType": "address",
          "name": "",
          "type": "address"
        }
      ],
      "stateMutability": "view",
      "type": "function"
    },
    {
      "inputs": [],
      "name": "getHarmonyCount",
      "outputs": [
        {
          "internalType": "uint256",
          "name": "",
          "type": "uint256"
        }
      ],
      "stateMutability": "view",
      "type": "function"
    }
  ],
  "bytecode": "0x608060405234801561001057600080fd5b50604051615408380380615408833981810160405281019061003291906100dc565b80600160006101000a81548173ffffffffffffffffffffffffffffffffffffffff021916908373ffffffffffffffffffffffffffffffffffffffff16021790555050610109565b600080fd5b600073ffffffffffffffffffffffffffffffffffffffff82169050919050565b60006100a98261007e565b9050919050565b6100b98161009e565b81146100c457600080fd5b50565b6000815190506100d6816100b0565b92915050565b6000602082840312156100f2576100f1610079565b5b6000610100848285016100c7565b91505092915050565b6152f0806101186000396000f3fe60806040523480156200001157600080fd5b50600436106200005e5760003560e01c8063030ff6fb146200006357806304d20c7b14620000995780631e690ddf14620000bb57806383b279d014620000f1578063f7fc04751462000127575b600080fd5b6200008160048036038101906200007b919062000562565b62000149565b60405162000090919062000642565b60405180910390f35b620000a362000273565b604051620000b2919062000642565b60405180910390f35b620000d96004803603810190620000d391906200069a565b62000299565b604051620000e8919062000642565b60405180910390f35b6200010f60048036038101906200010991906200069a565b6200032d565b6040516200011e919062000642565b60405180910390f35b620001316200036d565b604051620001409190620006dd565b60405180910390f35b6000803386868686600160009054906101000a900473ffffffffffffffffffffffffffffffffffffffff16604051620001829062000379565b620001939695949392919062000783565b604051809103906000f080158015620001b0573d6000803e3d6000fd5b5090506000819080600181540180825580915050600190039060005260206000200160009091909190916101000a81548173ffffffffffffffffffffffffffffffffffffffff021916908373ffffffffffffffffffffffffffffffffffffffff1602179055508073ffffffffffffffffffffffffffffffffffffffff167e37376e026b45adff185f9df6e852b7b6d2066df8337ad58e27b7acf727399d86866040516200025f92919062000805565b60405180910390a280915050949350505050565b600160009054906101000a900473ffffffffffffffffffffffffffffffffffffffff1681565b600080805490508210620002e4576040517f08c379a0000000000000000000000000000000000000000000000000000000008152600401620002db9062000890565b60405180910390fd5b60008281548110620002fb57620002fa620008b2565b5b9060005260206000200160009054906101000a900473ffffffffffffffffffffffffffffffffffffffff169050919050565b600081815481106200033e57600080fd5b906000526020600020016000915054906101000a900473ffffffffffffffffffffffffffffffffffffffff1681565b60008080549050905090565b6149d980620008e283390190565b6000604051905090565b600080fd5b600080fd5b600080fd5b600080fd5b6000601f19601f8301169050919050565b7f4e487b7100000000000000000000000000000000000000000000000000000000600052604160045260246000fd5b620003f082620003a5565b810181811067ffffffffffffffff82111715620004125762000411620003b6565b5b80604052505050565b60006200042762000387565b9050620004358282620003e5565b919050565b600067ffffffffffffffff821115620004585762000457620003b6565b5b6200046382620003a5565b9050602081019050919050565b82818337600083830152505050565b60006200049662000490846200043a565b6200041b565b905082815260208101848484011115620004b557620004b4620003a0565b5b620004c284828562000470565b509392505050565b600082601f830112620004e257620004e16200039b565b5b8135620004f48482602086016200047f565b91505092915050565b600073ffffffffffffffffffffffffffffffffffffffff82169050919050565b60006200052a82620004fd565b9050919050565b6200053c816200051d565b81146200054857600080fd5b50565b6000813590506200055c8162000531565b92915050565b600080600080608085870312156200057f576200057e62000391565b5b600085013567ffffffffffffffff811115620005a0576200059f62000396565b5b620005ae87828801620004ca565b945050602085013567ffffffffffffffff811115620005d257620005d162000396565b5b620005e087828801620004ca565b935050604085013567ffffffffffffffff81111562000604576200060362000396565b5b6200061287828801620004ca565b925050606062000625878288016200054b565b91505092959194509250565b6200063c816200051d565b82525050565b600060208201905062000659600083018462000631565b92915050565b6000819050919050565b62000674816200065f565b81146200068057600080fd5b50565b600081359050620006948162000669565b92915050565b600060208284031215620006b357620006b262000391565b5b6000620006c38482850162000683565b91505092915050565b620006d7816200065f565b82525050565b6000602082019050620006f46000830184620006cc565b92915050565b600081519050919050565b600082825260208201905092915050565b60005b838110156200073657808201518184015260208101905062000719565b60008484015250505050565b60006200074f82620006fa565b6200075b818562000705565b93506200076d81856020860162000716565b6200077881620003a5565b840191505092915050565b600060c0820190506200079a600083018962000631565b8181036020830152620007ae818862000742565b90508181036040830152620007c4818762000742565b90508181036060830152620007da818662000742565b9050620007eb608083018562000631565b620007fa60a083018462000631565b979650505050505050565b6000604082019050818103600083015262000821818562000742565b9050818103602083015262000837818462000742565b90509392505050565b7f496e646578206f7574206f6620626f756e647300000000000000000000000000600082015250565b60006200087860138362000705565b9150620008858262000840565b602082019050919050565b60006020820190508181036000830152620008ab8162000869565b9050919050565b7f4e487b7100000000000000000000000000000000000000000000000000000000600052603260045260246000fdfe60806040523480156200001157600080fd5b50604051620049d9380380620049d9833981810160405281019062000037919062000558565b838387876200004c816200028560201b60201c565b506000600360006101000a81548160ff021916908315150217905550600073ffffffffffffffffffffffffffffffffffffffff168173ffffffffffffffffffffffffffffffffffffffff1603620000dd5760006040517f1e4fbdf7000000000000000000000000000000000000000000000000000000008152600401620000d4919062000662565b60405180910390fd5b620000ee816200029a60201b60201c565b508160069081620001009190620008ca565b508060079081620001129190620008ca565b5050508173ffffffffffffffffffffffffffffffffffffffff16638da5cb5b6040518163ffffffff1660e01b8152600401602060405180830381865afa15801562000161573d6000803e3d6000fd5b505050506040513d601f19601f82011682018060405250810190620001879190620009b1565b73ffffffffffffffffffffffffffffffffffffffff168673ffffffffffffffffffffffffffffffffffffffff1614620001f7576040517f08c379a0000000000000000000000000000000000000000000000000000000008152600401620001ee9062000a6a565b60405180910390fd5b81600960006101000a81548173ffffffffffffffffffffffffffffffffffffffff021916908373ffffffffffffffffffffffffffffffffffffffff16021790555080600860006101000a81548173ffffffffffffffffffffffffffffffffffffffff021916908373ffffffffffffffffffffffffffffffffffffffff16021790555050505050505062000a8c565b8060029081620002969190620008ca565b5050565b6000600360019054906101000a900473ffffffffffffffffffffffffffffffffffffffff16905081600360016101000a81548173ffffffffffffffffffffffffffffffffffffffff021916908373ffffffffffffffffffffffffffffffffffffffff1602179055508173ffffffffffffffffffffffffffffffffffffffff168173ffffffffffffffffffffffffffffffffffffffff167f8be0079c531659141344cd1fd0a4f28419497f9722a3daafe3b4186f6b6457e060405160405180910390a35050565b6000604051905090565b600080fd5b600080fd5b600073ffffffffffffffffffffffffffffffffffffffff82169050919050565b6000620003a18262000374565b9050919050565b620003b38162000394565b8114620003bf57600080fd5b50565b600081519050620003d381620003a8565b92915050565b600080fd5b600080fd5b6000601f19601f8301169050919050565b7f4e487b7100000000000000000000000000000000000000000000000000000000600052604160045260246000fd5b6200042e82620003e3565b810181811067ffffffffffffffff8211171562000450576200044f620003f4565b5b80604052505050565b60006200046562000360565b905062000473828262000423565b919050565b600067ffffffffffffffff821115620004965762000495620003f4565b5b620004a182620003e3565b9050602081019050919050565b60005b83811015620004ce578082015181840152602081019050620004b1565b60008484015250505050565b6000620004f1620004eb8462000478565b62000459565b90508281526020810184848401111562000510576200050f620003de565b5b6200051d848285620004ae565b509392505050565b600082601f8301126200053d576200053c620003d9565b5b81516200054f848260208601620004da565b91505092915050565b60008060008060008060c087890312156200057857620005776200036a565b5b60006200058889828a01620003c2565b965050602087015167ffffffffffffffff811115620005ac57620005ab6200036f565b5b620005ba89828a0162000525565b955050604087015167ffffffffffffffff811115620005de57620005dd6200036f565b5b620005ec89828a0162000525565b945050606087015167ffffffffffffffff81111562000610576200060f6200036f565b5b6200061e89828a0162000525565b93505060806200063189828a01620003c2565b92505060a06200064489828a01620003c2565b9150509295509295509295565b6200065c8162000394565b82525050565b600060208201905062000679600083018462000651565b92915050565b600081519050919050565b7f4e487b7100000000000000000000000000000000000000000000000000000000600052602260045260246000fd5b60006002820490506001821680620006d257607f821691505b602082108103620006e857620006e76200068a565b5b50919050565b60008190508160005260206000209050919050565b60006020601f8301049050919050565b600082821b905092915050565b600060088302620007527fffffffffffffffffffffffffffffffffffffffffffffffffffffffffffffffff8262000713565b6200075e868362000713565b95508019841693508086168417925050509392505050565b6000819050919050565b6000819050919050565b6000620007ab620007a56200079f8462000776565b62000780565b62000776565b9050919050565b6000819050919050565b620007c7836200078a565b620007df620007d682620007b2565b84845462000720565b825550505050565b600090565b620007f6620007e7565b62000803818484620007bc565b505050565b5b818110156200082b576200081f600082620007ec565b60018101905062000809565b5050565b601f8211156200087a576200084481620006ee565b6200084f8462000703565b810160208510156200085f578190505b620008776200086e8562000703565b83018262000808565b50505b505050565b600082821c905092915050565b60006200089f600019846008026200087f565b1980831691505092915050565b6000620008ba83836200088c565b9150826002028217905092915050565b620008d5826200067f565b67ffffffffffffffff811115620008f157620008f0620003f4565b5b620008fd8254620006b9565b6200090a8282856200082f565b600060209050601f8311600181146200094257600084156200092d578287015190505b620009398582620008ac565b865550620009a9565b601f1984166200095286620006ee565b60005b828110156200097c5784890151825560018201915060208501945060208101905062000955565b868310156200099c578489015162000998601f8916826200088c565b8355505b6001600288020188555050505b505050505050565b600060208284031215620009ca57620009c96200036a565b5b6000620009da84828501620003c2565b91505092915050565b600082825260208201905092915050565b7f4572726f723a204861726d6f6e79206d7573742062696e64207769746820617260008201527f7469737420746f6b656e20616e642069742773206f776e657200000000000000602082015250565b600062000a52603983620009e3565b915062000a5f82620009f4565b604082019050919050565b6000602082019050818103600083015262000a858162000a43565b9050919050565b613f3d8062000a9c6000396000f3fe608060405234801561001057600080fd5b506004361061027e5760003560e01c8063660442351161015c578063a52e4138116100ce578063e985e9c511610087578063e985e9c514610758578063ed86eef314610788578063f072a25a146107b8578063f242432a146107d6578063f2fde38b146107f2578063f5298aca1461080e5761027e565b8063a52e413814610694578063bd85b039146106b0578063c073b7ab146106e0578063c6519b6a146106fe578063cf4691a41461071c578063d9c5819d1461073a5761027e565b806378819a961161012057806378819a96146105e45780637a009377146106025780638456cb5914610632578063889d8dd11461063c5780638da5cb5b1461065a578063a22cb465146106785761027e565b806366044235146105665780636b20c45414610584578063715018a6146105a0578063731133e9146105aa57806375e3380f146105c65761027e565b80632b430ebd116101f55780634ae6cfa7116101b95780634ae6cfa7146104905780634e1273f4146104ae5780634f558e79146104de5780635c975abb1461050e5780635e2912341461052c57806364a7a6fa1461054a5761027e565b80632b430ebd146103fe5780632eb2c2d61461041c5780633d9af486146104385780633f4ba83a1461046857806343bc1612146104725761027e565b80630e89341c116102475780630e89341c146103505780630f15f4c014610380578063162094c41461038a57806318160ddd146103a65780631f7fdffa146103c45780631f829146146103e05761027e565b8062fdd58e1461028357806301ffc9a7146102b357806303c405da146102e357806303d3981e1461030157806304d20c7b14610332575b600080fd5b61029d60048036038101906102989190612b80565b61082a565b6040516102aa9190612bcf565b60405180910390f35b6102cd60048036038101906102c89190612c42565b610884565b6040516102da9190612c8a565b60405180910390f35b6102eb610966565b6040516102f89190612c8a565b60405180910390f35b61031b60048036038101906103169190612ca5565b61096b565b604051610329929190612cf8565b60405180910390f35b61033a6109b9565b6040516103479190612d30565b60405180910390f35b61036a60048036038101906103659190612d4b565b6109df565b6040516103779190612e08565b60405180910390f35b610388610a84565b005b6103a4600480360381019061039f9190612f5f565b610ba6565b005b6103ae610c35565b6040516103bb9190612bcf565b60405180910390f35b6103de60048036038101906103d99190613124565b610c3f565b005b6103e8610d1d565b6040516103f59190612bcf565b60405180910390f35b610406610d22565b60405161041391906131fb565b60405180910390f35b61043660048036038101906104319190613216565b610d27565b005b610452600480360381019061044d9190612b80565b610e28565b60405161045f9190612bcf565b60405180910390f35b610470610e86565b005b61047a610e98565b6040516104879190612e08565b60405180910390f35b610498610f2a565b6040516104a59190612bcf565b60405180910390f35b6104c860048036038101906104c391906133a8565b610f2f565b6040516104d591906134de565b60405180910390f35b6104f860048036038101906104f39190612d4b565b611038565b6040516105059190612c8a565b60405180910390f35b61051661104c565b6040516105239190612c8a565b60405180910390f35b610534611063565b6040516105419190612bcf565b60405180910390f35b610564600480360381019061055f9190613500565b611068565b005b61056e611083565b60405161057b91906131fb565b60405180910390f35b61059e60048036038101906105999190613549565b611088565b005b6105a8611134565b005b6105c460048036038101906105bf91906135d4565b611148565b005b6105ce6111d8565b6040516105db9190612bcf565b60405180910390f35b6105ec6111dd565b6040516105f99190612bcf565b60405180910390f35b61061c60048036038101906106179190612b80565b6111e2565b6040516106299190612bcf565b60405180910390f35b61063a6112f6565b005b610644611308565b6040516106519190612e08565b60405180910390f35b61066261139a565b60405161066f9190612d30565b60405180910390f35b610692600480360381019061068d9190613683565b6113c4565b005b6106ae60048036038101906106a99190613500565b6113da565b005b6106ca60048036038101906106c59190612d4b565b6113f5565b6040516106d79190612bcf565b60405180910390f35b6106e8611412565b6040516106f59190612bcf565b60405180910390f35b610706611417565b6040516107139190612d30565b60405180910390f35b61072461143d565b60405161073191906131fb565b60405180910390f35b610742611442565b60405161074f9190612bcf565b60405180910390f35b610772600480360381019061076d91906136c3565b611447565b60405161077f9190612c8a565b60405180910390f35b6107a2600480360381019061079d9190612d4b565b6114db565b6040516107af9190612e08565b60405180910390f35b6107c061157b565b6040516107cd9190612bcf565b60405180910390f35b6107f060048036038101906107eb9190613703565b611580565b005b61080c6004803603810190610807919061379a565b611633565b005b61082860048036038101906108239190612ca5565b6116b9565b005b600080600083815260200190815260200160002060008473ffffffffffffffffffffffffffffffffffffffff1673ffffffffffffffffffffffffffffffffffffffff16815260200190815260200160002054905092915050565b60007fd9b67a26000000000000000000000000000000000000000000000000000000007bffffffffffffffffffffffffffffffffffffffffffffffffffffffff1916827bffffffffffffffffffffffffffffffffffffffffffffffffffffffff1916148061094f57507f0e89341c000000000000000000000000000000000000000000000000000000007bffffffffffffffffffffffffffffffffffffffffffffffffffffffff1916827bffffffffffffffffffffffffffffffffffffffffffffffffffffffff1916145b8061095f575061095e82611765565b5b9050919050565b600181565b600b602052826000526040600020602052816000526040600020818154811061099357600080fd5b906000526020600020906002020160009250925050508060000154908060010154905082565b600860009054906101000a900473ffffffffffffffffffffffffffffffffffffffff1681565b6060600a600083815260200190815260200160002080546109ff906137f6565b80601f0160208091040260200160405190810160405280929190818152602001828054610a2b906137f6565b8015610a785780601f10610a4d57610100808354040283529160200191610a78565b820191906000526020600020905b815481529060010190602001808311610a5b57829003601f168201915b50505050509050919050565b610a8c6117cf565b7fffffffffffffffffffffffffffffffffffffffffffffffffffffffffffffffff600960009054906101000a900473ffffffffffffffffffffffffffffffffffffffff1673ffffffffffffffffffffffffffffffffffffffff1663dd62ed3e33600860009054906101000a900473ffffffffffffffffffffffffffffffffffffffff166040518363ffffffff1660e01b8152600401610b2c929190613827565b602060405180830381865afa158015610b49573d6000803e3d6000fd5b505050506040513d601f19601f82011682018060405250810190610b6d9190613865565b14610b7757600080fd5b610ba4600860009054906101000a900473ffffffffffffffffffffffffffffffffffffffff1660016113c4565b565b610bae6117cf565b6000600a60008481526020019081526020016000208054610bce906137f6565b905014610c10576040517f08c379a0000000000000000000000000000000000000000000000000000000008152600401610c07906138de565b60405180910390fd5b80600a60008481526020019081526020016000209081610c309190613aaa565b505050565b6000600554905090565b610c476117cf565b610c7333600860009054906101000a900473ffffffffffffffffffffffffffffffffffffffff16611447565b610cb2576040517f08c379a0000000000000000000000000000000000000000000000000000000008152600401610ca990613c14565b60405180910390fd5b610cbe84848484611856565b60005b8351811015610d1657610d0985858381518110610ce157610ce0613c34565b5b6020026020010151858481518110610cfc57610cfb613c34565b5b60200260200101516118dc565b8080600101915050610cc1565b5050505050565b600381565b600181565b6000610d3161198b565b90508073ffffffffffffffffffffffffffffffffffffffff168673ffffffffffffffffffffffffffffffffffffffff1614158015610d765750610d748682611447565b155b15610dba5780866040517fe237d922000000000000000000000000000000000000000000000000000000008152600401610db1929190613827565b60405180910390fd5b610dc78686868686611993565b60005b8451811015610e1f57610e1286868381518110610dea57610de9613c34565b5b6020026020010151868481518110610e0557610e04613c34565b5b60200260200101516118dc565b8080600101915050610dca565b50505050505050565b6000600b60008473ffffffffffffffffffffffffffffffffffffffff1673ffffffffffffffffffffffffffffffffffffffff168152602001908152602001600020600083815260200190815260200160002080549050905092915050565b610e8e6117cf565b610e96611a8b565b565b606060068054610ea7906137f6565b80601f0160208091040260200160405190810160405280929190818152602001828054610ed3906137f6565b8015610f205780601f10610ef557610100808354040283529160200191610f20565b820191906000526020600020905b815481529060010190602001808311610f0357829003601f168201915b5050505050905090565b600781565b60608151835114610f7b57815183516040517f5b059991000000000000000000000000000000000000000000000000000000008152600401610f72929190612cf8565b60405180910390fd5b6000835167ffffffffffffffff811115610f9857610f97612e34565b5b604051908082528060200260200182016040528015610fc65781602001602082028036833780820191505090505b50905060005b845181101561102d57611003610feb8287611aee90919063ffffffff16565b610ffe8387611b0290919063ffffffff16565b61082a565b82828151811061101657611015613c34565b5b602002602001018181525050806001019050610fcc565b508091505092915050565b600080611044836113f5565b119050919050565b6000600360009054906101000a900460ff16905090565b600081565b6110706117cf565b806007908161107f9190613aaa565b5050565b600181565b61109061198b565b73ffffffffffffffffffffffffffffffffffffffff168373ffffffffffffffffffffffffffffffffffffffff16141580156110d957506110d7836110d261198b565b611447565b155b15611124576110e661198b565b836040517fe237d92200000000000000000000000000000000000000000000000000000000815260040161111b929190613827565b60405180910390fd5b61112f838383611b16565b505050565b61113c6117cf565b6111466000611baa565b565b6111506117cf565b61117c33600860009054906101000a900473ffffffffffffffffffffffffffffffffffffffff16611447565b6111bb576040517f08c379a00000000000000000000000000000000000000000000000000000000081526004016111b290613c14565b60405180910390fd5b6111c784848484611c70565b6111d28484846118dc565b50505050565b600581565b600681565b600080600b60008573ffffffffffffffffffffffffffffffffffffffff1673ffffffffffffffffffffffffffffffffffffffff16815260200190815260200160002060008481526020019081526020016000208054905011611279576040517f08c379a000000000000000000000000000000000000000000000000000000000815260040161127090613caf565b60405180910390fd5b600b60008473ffffffffffffffffffffffffffffffffffffffff1673ffffffffffffffffffffffffffffffffffffffff16815260200190815260200160002060008381526020019081526020016000206000815481106112dc576112db613c34565b5b906000526020600020906002020160010154905092915050565b6112fe6117cf565b611306611d09565b565b606060078054611317906137f6565b80601f0160208091040260200160405190810160405280929190818152602001828054611343906137f6565b80156113905780601f1061136557610100808354040283529160200191611390565b820191906000526020600020905b81548152906001019060200180831161137357829003601f168201915b5050505050905090565b6000600360019054906101000a900473ffffffffffffffffffffffffffffffffffffffff16905090565b6113d66113cf61198b565b8383611d6c565b5050565b6113e26117cf565b80600690816113f19190613aaa565b5050565b600060046000838152602001908152602001600020549050919050565b600481565b600960009054906101000a900473ffffffffffffffffffffffffffffffffffffffff1681565b600181565b600281565b6000600160008473ffffffffffffffffffffffffffffffffffffffff1673ffffffffffffffffffffffffffffffffffffffff16815260200190815260200160002060008373ffffffffffffffffffffffffffffffffffffffff1673ffffffffffffffffffffffffffffffffffffffff16815260200190815260200160002060009054906101000a900460ff16905092915050565b600a60205280600052604060002060009150905080546114fa906137f6565b80601f0160208091040260200160405190810160405280929190818152602001828054611526906137f6565b80156115735780601f1061154857610100808354040283529160200191611573565b820191906000526020600020905b81548152906001019060200180831161155657829003601f168201915b505050505081565b600181565b600061158a61198b565b90508073ffffffffffffffffffffffffffffffffffffffff168673ffffffffffffffffffffffffffffffffffffffff16141580156115cf57506115cd8682611447565b155b156116135780866040517fe237d92200000000000000000000000000000000000000000000000000000000815260040161160a929190613827565b60405180910390fd5b6116208686868686611edc565b61162b8585856118dc565b505050505050565b61163b6117cf565b600073ffffffffffffffffffffffffffffffffffffffff168173ffffffffffffffffffffffffffffffffffffffff16036116ad5760006040517f1e4fbdf70000000000000000000000000000000000000000000000000000000081526004016116a49190612d30565b60405180910390fd5b6116b681611baa565b50565b6116c161198b565b73ffffffffffffffffffffffffffffffffffffffff168373ffffffffffffffffffffffffffffffffffffffff161415801561170a57506117088361170361198b565b611447565b155b156117555761171761198b565b836040517fe237d92200000000000000000000000000000000000000000000000000000000815260040161174c929190613827565b60405180910390fd5b611760838383611fe7565b505050565b60007f01ffc9a7000000000000000000000000000000000000000000000000000000007bffffffffffffffffffffffffffffffffffffffffffffffffffffffff1916827bffffffffffffffffffffffffffffffffffffffffffffffffffffffff1916149050919050565b6117d761198b565b73ffffffffffffffffffffffffffffffffffffffff166117f561139a565b73ffffffffffffffffffffffffffffffffffffffff16146118545761181861198b565b6040517f118cdaa700000000000000000000000000000000000000000000000000000000815260040161184b9190612d30565b60405180910390fd5b565b600073ffffffffffffffffffffffffffffffffffffffff168473ffffffffffffffffffffffffffffffffffffffff16036118c85760006040517f57f447ce0000000000000000000000000000000000000000000000000000000081526004016118bf9190612d30565b60405180910390fd5b6118d660008585858561208e565b50505050565b6000600b60008573ffffffffffffffffffffffffffffffffffffffff1673ffffffffffffffffffffffffffffffffffffffff168152602001908152602001600020600084815260200190815260200160002090508060405180604001604052808481526020014281525090806001815401808255809150506001900390600052602060002090600202016000909190919091506000820151816000015560208201518160010155505050505050565b600033905090565b600073ffffffffffffffffffffffffffffffffffffffff168473ffffffffffffffffffffffffffffffffffffffff1603611a055760006040517f57f447ce0000000000000000000000000000000000000000000000000000000081526004016119fc9190612d30565b60405180910390fd5b600073ffffffffffffffffffffffffffffffffffffffff168573ffffffffffffffffffffffffffffffffffffffff1603611a775760006040517f01a83514000000000000000000000000000000000000000000000000000000008152600401611a6e9190612d30565b60405180910390fd5b611a84858585858561208e565b5050505050565b611a93612140565b6000600360006101000a81548160ff0219169083151502179055507f5db9ee0a495bf2e6ff9c91a7834c1ba4fdd244a5e8aa4e537bd38aeae4b073aa611ad761198b565b604051611ae49190612d30565b60405180910390a1565b600060208202602084010151905092915050565b600060208202602084010151905092915050565b600073ffffffffffffffffffffffffffffffffffffffff168373ffffffffffffffffffffffffffffffffffffffff1603611b885760006040517f01a83514000000000000000000000000000000000000000000000000000000008152600401611b7f9190612d30565b60405180910390fd5b611ba583600084846040518060200160405280600081525061208e565b505050565b6000600360019054906101000a900473ffffffffffffffffffffffffffffffffffffffff16905081600360016101000a81548173ffffffffffffffffffffffffffffffffffffffff021916908373ffffffffffffffffffffffffffffffffffffffff1602179055508173ffffffffffffffffffffffffffffffffffffffff168173ffffffffffffffffffffffffffffffffffffffff167f8be0079c531659141344cd1fd0a4f28419497f9722a3daafe3b4186f6b6457e060405160405180910390a35050565b600073ffffffffffffffffffffffffffffffffffffffff168473ffffffffffffffffffffffffffffffffffffffff1603611ce25760006040517f57f447ce000000000000000000000000000000000000000000000000000000008152600401611cd99190612d30565b60405180910390fd5b600080611cef8585612180565b91509150611d0160008784848761208e565b505050505050565b611d116121b0565b6001600360006101000a81548160ff0219169083151502179055507f62e78cea01bee320cd4e420270b5ea74000d11b0c9f74754ebdbfc544b05a258611d5561198b565b604051611d629190612d30565b60405180910390a1565b600073ffffffffffffffffffffffffffffffffffffffff168273ffffffffffffffffffffffffffffffffffffffff1603611dde5760006040517fced3e100000000000000000000000000000000000000000000000000000000008152600401611dd59190612d30565b60405180910390fd5b80600160008573ffffffffffffffffffffffffffffffffffffffff1673ffffffffffffffffffffffffffffffffffffffff16815260200190815260200160002060008473ffffffffffffffffffffffffffffffffffffffff1673ffffffffffffffffffffffffffffffffffffffff16815260200190815260200160002060006101000a81548160ff0219169083151502179055508173ffffffffffffffffffffffffffffffffffffffff168373ffffffffffffffffffffffffffffffffffffffff167f17307eab39ab6107e8899845ad3d59bd9653f200f220920489ca2b5937696c3183604051611ecf9190612c8a565b60405180910390a3505050565b600073ffffffffffffffffffffffffffffffffffffffff168473ffffffffffffffffffffffffffffffffffffffff1603611f4e5760006040517f57f447ce000000000000000000000000000000000000000000000000000000008152600401611f459190612d30565b60405180910390fd5b600073ffffffffffffffffffffffffffffffffffffffff168573ffffffffffffffffffffffffffffffffffffffff1603611fc05760006040517f01a83514000000000000000000000000000000000000000000000000000000008152600401611fb79190612d30565b60405180910390fd5b600080611fcd8585612180565b91509150611fde878784848761208e565b50505050505050565b600073ffffffffffffffffffffffffffffffffffffffff168373ffffffffffffffffffffffffffffffffffffffff16036120595760006040517f01a835140000000000000000000000000000000000000000000000000000000081526004016120509190612d30565b60405180910390fd5b6000806120668484612180565b9150915061208785600084846040518060200160405280600081525061208e565b5050505050565b61209a858585856121f1565b600073ffffffffffffffffffffffffffffffffffffffff168473ffffffffffffffffffffffffffffffffffffffff16146121395760006120d861198b565b905060018451036121285760006120f9600086611b0290919063ffffffff16565b90506000612111600086611b0290919063ffffffff16565b9050612121838989858589612203565b5050612137565b6121368187878787876123b7565b5b505b5050505050565b61214861104c565b61217e576040517f8dfc202b00000000000000000000000000000000000000000000000000000000815260040160405180910390fd5b565b60608060405191506001825283602083015260408201905060018152826020820152604081016040529250929050565b6121b861104c565b156121ef576040517fd93c066500000000000000000000000000000000000000000000000000000000815260040160405180910390fd5b565b6121fd8484848461256b565b50505050565b60008473ffffffffffffffffffffffffffffffffffffffff163b11156123af578373ffffffffffffffffffffffffffffffffffffffff1663f23a6e6187878686866040518663ffffffff1660e01b8152600401612264959493929190613d24565b6020604051808303816000875af19250505080156122a057506040513d601f19601f8201168201806040525081019061229d9190613d93565b60015b612324573d80600081146122d0576040519150601f19603f3d011682016040523d82523d6000602084013e6122d5565b606091505b50600081510361231c57846040517f57f447ce0000000000000000000000000000000000000000000000000000000081526004016123139190612d30565b60405180910390fd5b805181602001fd5b63f23a6e6160e01b7bffffffffffffffffffffffffffffffffffffffffffffffffffffffff1916817bffffffffffffffffffffffffffffffffffffffffffffffffffffffff1916146123ad57846040517f57f447ce0000000000000000000000000000000000000000000000000000000081526004016123a49190612d30565b60405180910390fd5b505b505050505050565b60008473ffffffffffffffffffffffffffffffffffffffff163b1115612563578373ffffffffffffffffffffffffffffffffffffffff1663bc197c8187878686866040518663ffffffff1660e01b8152600401612418959493929190613dc0565b6020604051808303816000875af192505050801561245457506040513d601f19601f820116820180604052508101906124519190613d93565b60015b6124d8573d8060008114612484576040519150601f19603f3d011682016040523d82523d6000602084013e612489565b606091505b5060008151036124d057846040517f57f447ce0000000000000000000000000000000000000000000000000000000081526004016124c79190612d30565b60405180910390fd5b805181602001fd5b63bc197c8160e01b7bffffffffffffffffffffffffffffffffffffffffffffffffffffffff1916817bffffffffffffffffffffffffffffffffffffffffffffffffffffffff19161461256157846040517f57f447ce0000000000000000000000000000000000000000000000000000000081526004016125589190612d30565b60405180910390fd5b505b505050505050565b61257784848484612716565b600073ffffffffffffffffffffffffffffffffffffffff168473ffffffffffffffffffffffffffffffffffffffff1603612651576000805b83518110156126355760008382815181106125cd576125cc613c34565b5b6020026020010151905080600460008785815181106125ef576125ee613c34565b5b6020026020010151815260200190815260200160002060008282546126149190613e57565b9250508190555080836126279190613e57565b9250508060010190506125af565b5080600560008282546126489190613e57565b92505081905550505b600073ffffffffffffffffffffffffffffffffffffffff168373ffffffffffffffffffffffffffffffffffffffff1603612710576000805b83518110156126fd5760008382815181106126a7576126a6613c34565b5b6020026020010151905080600460008785815181106126c9576126c8613c34565b5b6020026020010151815260200190815260200160002060008282540392505081905550808301925050806001019050612689565b5080600560008282540392505081905550505b50505050565b61271e6121b0565b61272a84848484612730565b50505050565b805182511461277a57815181516040517f5b059991000000000000000000000000000000000000000000000000000000008152600401612771929190612cf8565b60405180910390fd5b600061278461198b565b905060005b83518110156129935760006127a78286611b0290919063ffffffff16565b905060006127be8386611b0290919063ffffffff16565b9050600073ffffffffffffffffffffffffffffffffffffffff168873ffffffffffffffffffffffffffffffffffffffff16146128eb57600080600084815260200190815260200160002060008a73ffffffffffffffffffffffffffffffffffffffff1673ffffffffffffffffffffffffffffffffffffffff1681526020019081526020016000205490508181101561289357888183856040517f03dee4c500000000000000000000000000000000000000000000000000000000815260040161288a9493929190613e8b565b60405180910390fd5b81810360008085815260200190815260200160002060008b73ffffffffffffffffffffffffffffffffffffffff1673ffffffffffffffffffffffffffffffffffffffff16815260200190815260200160002081905550505b600073ffffffffffffffffffffffffffffffffffffffff168773ffffffffffffffffffffffffffffffffffffffff1614612986578060008084815260200190815260200160002060008973ffffffffffffffffffffffffffffffffffffffff1673ffffffffffffffffffffffffffffffffffffffff168152602001908152602001600020600082825461297e9190613e57565b925050819055505b5050806001019050612789565b506001835103612a525760006129b3600085611b0290919063ffffffff16565b905060006129cb600085611b0290919063ffffffff16565b90508573ffffffffffffffffffffffffffffffffffffffff168773ffffffffffffffffffffffffffffffffffffffff168473ffffffffffffffffffffffffffffffffffffffff167fc3d58168c5ae7397731d063d5bbf3d657854427343f4c083240f7aacaa2d0f628585604051612a43929190612cf8565b60405180910390a45050612ad1565b8373ffffffffffffffffffffffffffffffffffffffff168573ffffffffffffffffffffffffffffffffffffffff168273ffffffffffffffffffffffffffffffffffffffff167f4a39dc06d4c0dbc64b70af90fd698a233a518aa5d07e595d983b8c0526c8f7fb8686604051612ac8929190613ed0565b60405180910390a45b5050505050565b6000604051905090565b600080fd5b600080fd5b600073ffffffffffffffffffffffffffffffffffffffff82169050919050565b6000612b1782612aec565b9050919050565b612b2781612b0c565b8114612b3257600080fd5b50565b600081359050612b4481612b1e565b92915050565b6000819050919050565b612b5d81612b4a565b8114612b6857600080fd5b50565b600081359050612b7a81612b54565b92915050565b60008060408385031215612b9757612b96612ae2565b5b6000612ba585828601612b35565b9250506020612bb685828601612b6b565b9150509250929050565b612bc981612b4a565b82525050565b6000602082019050612be46000830184612bc0565b92915050565b60007fffffffff0000000000000000000000000000000000000000000000000000000082169050919050565b612c1f81612bea565b8114612c2a57600080fd5b50565b600081359050612c3c81612c16565b92915050565b600060208284031215612c5857612c57612ae2565b5b6000612c6684828501612c2d565b91505092915050565b60008115159050919050565b612c8481612c6f565b82525050565b6000602082019050612c9f6000830184612c7b565b92915050565b600080600060608486031215612cbe57612cbd612ae2565b5b6000612ccc86828701612b35565b9350506020612cdd86828701612b6b565b9250506040612cee86828701612b6b565b9150509250925092565b6000604082019050612d0d6000830185612bc0565b612d1a6020830184612bc0565b9392505050565b612d2a81612b0c565b82525050565b6000602082019050612d456000830184612d21565b92915050565b600060208284031215612d6157612d60612ae2565b5b6000612d6f84828501612b6b565b91505092915050565b600081519050919050565b600082825260208201905092915050565b60005b83811015612db2578082015181840152602081019050612d97565b60008484015250505050565b6000601f19601f8301169050919050565b6000612dda82612d78565b612de48185612d83565b9350612df4818560208601612d94565b612dfd81612dbe565b840191505092915050565b60006020820190508181036000830152612e228184612dcf565b905092915050565b600080fd5b600080fd5b7f4e487b7100000000000000000000000000000000000000000000000000000000600052604160045260246000fd5b612e6c82612dbe565b810181811067ffffffffffffffff82111715612e8b57612e8a612e34565b5b80604052505050565b6000612e9e612ad8565b9050612eaa8282612e63565b919050565b600067ffffffffffffffff821115612eca57612ec9612e34565b5b612ed382612dbe565b9050602081019050919050565b82818337600083830152505050565b6000612f02612efd84612eaf565b612e94565b905082815260208101848484011115612f1e57612f1d612e2f565b5b612f29848285612ee0565b509392505050565b600082601f830112612f4657612f45612e2a565b5b8135612f56848260208601612eef565b91505092915050565b60008060408385031215612f7657612f75612ae2565b5b6000612f8485828601612b6b565b925050602083013567ffffffffffffffff811115612fa557612fa4612ae7565b5b612fb185828601612f31565b9150509250929050565b600067ffffffffffffffff821115612fd657612fd5612e34565b5b602082029050602081019050919050565b600080fd5b6000612fff612ffa84612fbb565b612e94565b9050808382526020820190506020840283018581111561302257613021612fe7565b5b835b8181101561304b57806130378882612b6b565b845260208401935050602081019050613024565b5050509392505050565b600082601f83011261306a57613069612e2a565b5b813561307a848260208601612fec565b91505092915050565b600067ffffffffffffffff82111561309e5761309d612e34565b5b6130a782612dbe565b9050602081019050919050565b60006130c76130c284613083565b612e94565b9050828152602081018484840111156130e3576130e2612e2f565b5b6130ee848285612ee0565b509392505050565b600082601f83011261310b5761310a612e2a565b5b813561311b8482602086016130b4565b91505092915050565b6000806000806080858703121561313e5761313d612ae2565b5b600061314c87828801612b35565b945050602085013567ffffffffffffffff81111561316d5761316c612ae7565b5b61317987828801613055565b935050604085013567ffffffffffffffff81111561319a57613199612ae7565b5b6131a687828801613055565b925050606085013567ffffffffffffffff8111156131c7576131c6612ae7565b5b6131d3878288016130f6565b91505092959194509250565b600060ff82169050919050565b6131f5816131df565b82525050565b600060208201905061321060008301846131ec565b92915050565b600080600080600060a0868803121561323257613231612ae2565b5b600061324088828901612b35565b955050602061325188828901612b35565b945050604086013567ffffffffffffffff81111561327257613271612ae7565b5b61327e88828901613055565b935050606086013567ffffffffffffffff81111561329f5761329e612ae7565b5b6132ab88828901613055565b925050608086013567ffffffffffffffff8111156132cc576132cb612ae7565b5b6132d8888289016130f6565b9150509295509295909350565b600067ffffffffffffffff821115613300576132ff612e34565b5b602082029050602081019050919050565b600061332461331f846132e5565b612e94565b9050808382526020820190506020840283018581111561334757613346612fe7565b5b835b81811015613370578061335c8882612b35565b845260208401935050602081019050613349565b5050509392505050565b600082601f83011261338f5761338e612e2a565b5b813561339f848260208601613311565b91505092915050565b600080604083850312156133bf576133be612ae2565b5b600083013567ffffffffffffffff8111156133dd576133dc612ae7565b5b6133e98582860161337a565b925050602083013567ffffffffffffffff81111561340a57613409612ae7565b5b61341685828601613055565b9150509250929050565b600081519050919050565b600082825260208201905092915050565b6000819050602082019050919050565b61345581612b4a565b82525050565b6000613467838361344c565b60208301905092915050565b6000602082019050919050565b600061348b82613420565b613495818561342b565b93506134a08361343c565b8060005b838110156134d15781516134b8888261345b565b97506134c383613473565b9250506001810190506134a4565b5085935050505092915050565b600060208201905081810360008301526134f88184613480565b905092915050565b60006020828403121561351657613515612ae2565b5b600082013567ffffffffffffffff81111561353457613533612ae7565b5b61354084828501612f31565b91505092915050565b60008060006060848603121561356257613561612ae2565b5b600061357086828701612b35565b935050602084013567ffffffffffffffff81111561359157613590612ae7565b5b61359d86828701613055565b925050604084013567ffffffffffffffff8111156135be576135bd612ae7565b5b6135ca86828701613055565b9150509250925092565b600080600080608085870312156135ee576135ed612ae2565b5b60006135fc87828801612b35565b945050602061360d87828801612b6b565b935050604061361e87828801612b6b565b925050606085013567ffffffffffffffff81111561363f5761363e612ae7565b5b61364b878288016130f6565b91505092959194509250565b61366081612c6f565b811461366b57600080fd5b50565b60008135905061367d81613657565b92915050565b6000806040838503121561369a57613699612ae2565b5b60006136a885828601612b35565b92505060206136b98582860161366e565b9150509250929050565b600080604083850312156136da576136d9612ae2565b5b60006136e885828601612b35565b92505060206136f985828601612b35565b9150509250929050565b600080600080600060a0868803121561371f5761371e612ae2565b5b600061372d88828901612b35565b955050602061373e88828901612b35565b945050604061374f88828901612b6b565b935050606061376088828901612b6b565b925050608086013567ffffffffffffffff81111561378157613780612ae7565b5b61378d888289016130f6565b9150509295509295909350565b6000602082840312156137b0576137af612ae2565b5b60006137be84828501612b35565b91505092915050565b7f4e487b7100000000000000000000000000000000000000000000000000000000600052602260045260246000fd5b6000600282049050600182168061380e57607f821691505b602082108103613821576138206137c7565b5b50919050565b600060408201905061383c6000830185612d21565b6138496020830184612d21565b9392505050565b60008151905061385f81612b54565b92915050565b60006020828403121561387b5761387a612ae2565b5b600061388984828501613850565b91505092915050565b7f4572726f723a2043616e6e6f7420736574205552492074776963650000000000600082015250565b60006138c8601b83612d83565b91506138d382613892565b602082019050919050565b600060208201905081810360008301526138f7816138bb565b9050919050565b60008190508160005260206000209050919050565b60006020601f8301049050919050565b600082821b905092915050565b6000600883026139607fffffffffffffffffffffffffffffffffffffffffffffffffffffffffffffffff82613923565b61396a8683613923565b95508019841693508086168417925050509392505050565b6000819050919050565b60006139a76139a261399d84612b4a565b613982565b612b4a565b9050919050565b6000819050919050565b6139c18361398c565b6139d56139cd826139ae565b848454613930565b825550505050565b600090565b6139ea6139dd565b6139f58184846139b8565b505050565b5b81811015613a1957613a0e6000826139e2565b6001810190506139fb565b5050565b601f821115613a5e57613a2f816138fe565b613a3884613913565b81016020851015613a47578190505b613a5b613a5385613913565b8301826139fa565b50505b505050565b600082821c905092915050565b6000613a8160001984600802613a63565b1980831691505092915050565b6000613a9a8383613a70565b9150826002028217905092915050565b613ab382612d78565b67ffffffffffffffff811115613acc57613acb612e34565b5b613ad682546137f6565b613ae1828285613a1d565b600060209050601f831160018114613b145760008415613b02578287015190505b613b0c8582613a8e565b865550613b74565b601f198416613b22866138fe565b60005b82811015613b4a57848901518255600182019150602085019450602081019050613b25565b86831015613b675784890151613b63601f891682613a70565b8355505b6001600288020188555050505b505050505050565b7f4572726f723a20596f75206e65656420746f20616374697661746520616e642060008201527f617070726f766520746865204575746572706520636f6e747261637420746f2060208201527f637265617465206861726d6f6e69657300000000000000000000000000000000604082015250565b6000613bfe605083612d83565b9150613c0982613b7c565b606082019050919050565b60006020820190508181036000830152613c2d81613bf1565b9050919050565b7f4e487b7100000000000000000000000000000000000000000000000000000000600052603260045260246000fd5b7f4e6f2070757263686173657320666f756e640000000000000000000000000000600082015250565b6000613c99601283612d83565b9150613ca482613c63565b602082019050919050565b60006020820190508181036000830152613cc881613c8c565b9050919050565b600081519050919050565b600082825260208201905092915050565b6000613cf682613ccf565b613d008185613cda565b9350613d10818560208601612d94565b613d1981612dbe565b840191505092915050565b600060a082019050613d396000830188612d21565b613d466020830187612d21565b613d536040830186612bc0565b613d606060830185612bc0565b8181036080830152613d728184613ceb565b90509695505050505050565b600081519050613d8d81612c16565b92915050565b600060208284031215613da957613da8612ae2565b5b6000613db784828501613d7e565b91505092915050565b600060a082019050613dd56000830188612d21565b613de26020830187612d21565b8181036040830152613df48186613480565b90508181036060830152613e088185613480565b90508181036080830152613e1c8184613ceb565b90509695505050505050565b7f4e487b7100000000000000000000000000000000000000000000000000000000600052601160045260246000fd5b6000613e6282612b4a565b9150613e6d83612b4a565b9250828201905080821115613e8557613e84613e28565b5b92915050565b6000608082019050613ea06000830187612d21565b613ead6020830186612bc0565b613eba6040830185612bc0565b613ec76060830184612bc0565b95945050505050565b60006040820190508181036000830152613eea8185613480565b90508181036020830152613efe8184613480565b9050939250505056fea26469706673582212206c947874b449ce6f82992f49a2daf568562ddf148acfd1090f1c1b5c7a6fd9ee64736f6c63430008180033a26469706673582212202cf79f7f1bef687e05f0e6b1eaf1bf159a46bfd2ec2c5d92466e218be0d10fde64736f6c63430008180033",
  "linkReferences": {},
  "deployedLinkReferences": {}
}