{
  "_format": "hh-sol-artifact-1",
  "contractName": "YouTubeStreamsAggregator",
  "sourceName": "contracts/aggregators/YouTubeStreamsAggregator.sol",
  "abi": [
    {
      "inputs": [],
      "stateMutability": "nonpayable",
      "type": "constructor"
    },
    {
      "inputs": [
        {
          "internalType": "address",
          "name": "owner",
          "type": "address"
        }
      ],
      "name": "OwnableInvalidOwner",
      "type": "error"
    },
    {
      "inputs": [
        {
          "internalType": "address",
          "name": "account",
          "type": "address"
        }
      ],
      "name": "OwnableUnauthorizedAccount",
      "type": "error"
    },
    {
      "anonymous": false,
      "inputs": [
        {
          "indexed": true,
          "internalType": "address",
          "name": "previousOwner",
          "type": "address"
        },
        {
          "indexed": true,
          "internalType": "address",
          "name": "newOwner",
          "type": "address"
        }
      ],
      "name": "OwnershipTransferred",
      "type": "event"
    },
    {
      "inputs": [],
      "name": "decimals",
      "outputs": [
        {
          "internalType": "uint8",
          "name": "",
          "type": "uint8"
        }
      ],
      "stateMutability": "view",
      "type": "function"
    },
    {
      "inputs": [],
      "name": "description",
      "outputs": [
        {
          "internalType": "string",
          "name": "",
          "type": "string"
        }
      ],
      "stateMutability": "view",
      "type": "function"
    },
    {
      "inputs": [
        {
          "internalType": "string",
          "name": "artistIdentifier",
          "type": "string"
        }
      ],
      "name": "getArtistStreams",
      "outputs": [
        {
          "internalType": "uint256",
          "name": "streams",
          "type": "uint256"
        },
        {
          "internalType": "uint256",
          "name": "updatedAt",
          "type": "uint256"
        }
      ],
      "stateMutability": "view",
      "type": "function"
    },
    {
      "inputs": [],
      "name": "owner",
      "outputs": [
        {
          "internalType": "address",
          "name": "",
          "type": "address"
        }
      ],
      "stateMutability": "view",
      "type": "function"
    },
    {
      "inputs": [],
      "name": "renounceOwnership",
      "outputs": [],
      "stateMutability": "nonpayable",
      "type": "function"
    },
    {
      "inputs": [
        {
          "internalType": "address",
          "name": "newOwner",
          "type": "address"
        }
      ],
      "name": "transferOwnership",
      "outputs": [],
      "stateMutability": "nonpayable",
      "type": "function"
    },
    {
      "inputs": [
        {
          "internalType": "string[]",
          "name": "artistIdentifiers",
          "type": "string[]"
        },
        {
          "internalType": "uint256[]",
          "name": "streamCounts",
          "type": "uint256[]"
        }
      ],
      "name": "updateArtistStreamsBatch",
      "outputs": [],
      "stateMutability": "nonpayable",
      "type": "function"
    },
    {
      "inputs": [],
      "name": "version",
      "outputs": [
        {
          "internalType": "uint256",
          "name": "",
          "type": "uint256"
        }
      ],
      "stateMutability": "view",
      "type": "function"
    }
  ],
  "bytecode": "0x608060405260008060146101000a81548160ff021916908360ff1602179055506040518060400160405280601a81526020017f596f75547562652053747265616d732041676772656761746f720000000000008152506001908162000065919062000445565b5060006002553480156200007857600080fd5b5033600073ffffffffffffffffffffffffffffffffffffffff168173ffffffffffffffffffffffffffffffffffffffff1603620000ef5760006040517f1e4fbdf7000000000000000000000000000000000000000000000000000000008152600401620000e6919062000571565b60405180910390fd5b62000100816200010760201b60201c565b506200058e565b60008060009054906101000a900473ffffffffffffffffffffffffffffffffffffffff169050816000806101000a81548173ffffffffffffffffffffffffffffffffffffffff021916908373ffffffffffffffffffffffffffffffffffffffff1602179055508173ffffffffffffffffffffffffffffffffffffffff168173ffffffffffffffffffffffffffffffffffffffff167f8be0079c531659141344cd1fd0a4f28419497f9722a3daafe3b4186f6b6457e060405160405180910390a35050565b600081519050919050565b7f4e487b7100000000000000000000000000000000000000000000000000000000600052604160045260246000fd5b7f4e487b7100000000000000000000000000000000000000000000000000000000600052602260045260246000fd5b600060028204905060018216806200024d57607f821691505b60208210810362000263576200026262000205565b5b50919050565b60008190508160005260206000209050919050565b60006020601f8301049050919050565b600082821b905092915050565b600060088302620002cd7fffffffffffffffffffffffffffffffffffffffffffffffffffffffffffffffff826200028e565b620002d986836200028e565b95508019841693508086168417925050509392505050565b6000819050919050565b6000819050919050565b600062000326620003206200031a84620002f1565b620002fb565b620002f1565b9050919050565b6000819050919050565b620003428362000305565b6200035a62000351826200032d565b8484546200029b565b825550505050565b600090565b6200037162000362565b6200037e81848462000337565b505050565b5b81811015620003a6576200039a60008262000367565b60018101905062000384565b5050565b601f821115620003f557620003bf8162000269565b620003ca846200027e565b81016020851015620003da578190505b620003f2620003e9856200027e565b83018262000383565b50505b505050565b600082821c905092915050565b60006200041a60001984600802620003fa565b1980831691505092915050565b600062000435838362000407565b9150826002028217905092915050565b6200045082620001cb565b67ffffffffffffffff8111156200046c576200046b620001d6565b5b62000478825462000234565b62000485828285620003aa565b600060209050601f831160018114620004bd5760008415620004a8578287015190505b620004b4858262000427565b86555062000524565b601f198416620004cd8662000269565b60005b82811015620004f757848901518255600182019150602085019450602081019050620004d0565b8683101562000517578489015162000513601f89168262000407565b8355505b6001600288020188555050505b505050505050565b600073ffffffffffffffffffffffffffffffffffffffff82169050919050565b600062000559826200052c565b9050919050565b6200056b816200054c565b82525050565b600060208201905062000588600083018462000560565b92915050565b610c47806200059e6000396000f3fe608060405234801561001057600080fd5b50600436106100885760003560e01c80637284e4161161005b5780637284e416146101045780638da5cb5b14610122578063ddae217914610140578063f2fde38b1461015c57610088565b8063313ce5671461008d5780634b6769fe146100ab57806354fd4d50146100dc578063715018a6146100fa575b600080fd5b610095610178565b6040516100a29190610618565b60405180910390f35b6100c560048036038101906100c091906106a2565b61018e565b6040516100d3929190610708565b60405180910390f35b6100e4610250565b6040516100f19190610731565b60405180910390f35b61010261025a565b005b61010c61026e565b60405161011991906107dc565b60405180910390f35b61012a610300565b604051610137919061083f565b60405180910390f35b61015a60048036038101906101559190610906565b610329565b005b610176600480360381019061017191906109b3565b610423565b005b60008060149054906101000a900460ff16905090565b6000806000600385856040516101a5929190610a1f565b908152602001604051809103902060010154036101f7576040517f08c379a00000000000000000000000000000000000000000000000000000000081526004016101ee90610a84565b60405180910390fd5b60006003858560405161020b929190610a1f565b90815260200160405180910390206040518060400160405290816000820154815260200160018201548152505090508060000151816020015192509250509250929050565b6000600254905090565b6102626104a9565b61026c6000610530565b565b60606001805461027d90610ad3565b80601f01602080910402602001604051908101604052809291908181526020018280546102a990610ad3565b80156102f65780601f106102cb576101008083540402835291602001916102f6565b820191906000526020600020905b8154815290600101906020018083116102d957829003601f168201915b5050505050905090565b60008060009054906101000a900473ffffffffffffffffffffffffffffffffffffffff16905090565b6103316104a9565b818190508484905014610379576040517f08c379a000000000000000000000000000000000000000000000000000000000815260040161037090610b50565b60405180910390fd5b60005b8484905081101561041c5760405180604001604052808484848181106103a5576103a4610b70565b5b9050602002013581526020014281525060038686848181106103ca576103c9610b70565b5b90506020028101906103dc9190610bae565b6040516103ea929190610a1f565b90815260200160405180910390206000820151816000015560208201518160010155905050808060010191505061037c565b5050505050565b61042b6104a9565b600073ffffffffffffffffffffffffffffffffffffffff168173ffffffffffffffffffffffffffffffffffffffff160361049d5760006040517f1e4fbdf7000000000000000000000000000000000000000000000000000000008152600401610494919061083f565b60405180910390fd5b6104a681610530565b50565b6104b16105f4565b73ffffffffffffffffffffffffffffffffffffffff166104cf610300565b73ffffffffffffffffffffffffffffffffffffffff161461052e576104f26105f4565b6040517f118cdaa7000000000000000000000000000000000000000000000000000000008152600401610525919061083f565b60405180910390fd5b565b60008060009054906101000a900473ffffffffffffffffffffffffffffffffffffffff169050816000806101000a81548173ffffffffffffffffffffffffffffffffffffffff021916908373ffffffffffffffffffffffffffffffffffffffff1602179055508173ffffffffffffffffffffffffffffffffffffffff168173ffffffffffffffffffffffffffffffffffffffff167f8be0079c531659141344cd1fd0a4f28419497f9722a3daafe3b4186f6b6457e060405160405180910390a35050565b600033905090565b600060ff82169050919050565b610612816105fc565b82525050565b600060208201905061062d6000830184610609565b92915050565b600080fd5b600080fd5b600080fd5b600080fd5b600080fd5b60008083601f8401126106625761066161063d565b5b8235905067ffffffffffffffff81111561067f5761067e610642565b5b60208301915083600182028301111561069b5761069a610647565b5b9250929050565b600080602083850312156106b9576106b8610633565b5b600083013567ffffffffffffffff8111156106d7576106d6610638565b5b6106e38582860161064c565b92509250509250929050565b6000819050919050565b610702816106ef565b82525050565b600060408201905061071d60008301856106f9565b61072a60208301846106f9565b9392505050565b600060208201905061074660008301846106f9565b92915050565b600081519050919050565b600082825260208201905092915050565b60005b8381101561078657808201518184015260208101905061076b565b60008484015250505050565b6000601f19601f8301169050919050565b60006107ae8261074c565b6107b88185610757565b93506107c8818560208601610768565b6107d181610792565b840191505092915050565b600060208201905081810360008301526107f681846107a3565b905092915050565b600073ffffffffffffffffffffffffffffffffffffffff82169050919050565b6000610829826107fe565b9050919050565b6108398161081e565b82525050565b60006020820190506108546000830184610830565b92915050565b60008083601f8401126108705761086f61063d565b5b8235905067ffffffffffffffff81111561088d5761088c610642565b5b6020830191508360208202830111156108a9576108a8610647565b5b9250929050565b60008083601f8401126108c6576108c561063d565b5b8235905067ffffffffffffffff8111156108e3576108e2610642565b5b6020830191508360208202830111156108ff576108fe610647565b5b9250929050565b600080600080604085870312156109205761091f610633565b5b600085013567ffffffffffffffff81111561093e5761093d610638565b5b61094a8782880161085a565b9450945050602085013567ffffffffffffffff81111561096d5761096c610638565b5b610979878288016108b0565b925092505092959194509250565b6109908161081e565b811461099b57600080fd5b50565b6000813590506109ad81610987565b92915050565b6000602082840312156109c9576109c8610633565b5b60006109d78482850161099e565b91505092915050565b600081905092915050565b82818337600083830152505050565b6000610a0683856109e0565b9350610a138385846109eb565b82840190509392505050565b6000610a2c8284866109fa565b91508190509392505050565b7f4e6f20646174612070726573656e7420666f722074686973206172746973742e600082015250565b6000610a6e602083610757565b9150610a7982610a38565b602082019050919050565b60006020820190508181036000830152610a9d81610a61565b9050919050565b7f4e487b7100000000000000000000000000000000000000000000000000000000600052602260045260246000fd5b60006002820490506001821680610aeb57607f821691505b602082108103610afe57610afd610aa4565b5b50919050565b7f4172726179206c656e67746873206d757374206d617463682e00000000000000600082015250565b6000610b3a601983610757565b9150610b4582610b04565b602082019050919050565b60006020820190508181036000830152610b6981610b2d565b9050919050565b7f4e487b7100000000000000000000000000000000000000000000000000000000600052603260045260246000fd5b600080fd5b600080fd5b600080fd5b60008083356001602003843603038112610bcb57610bca610b9f565b5b80840192508235915067ffffffffffffffff821115610bed57610bec610ba4565b5b602083019250600182023603831315610c0957610c08610ba9565b5b50925092905056fea2646970667358221220604a9f46bcfc4affd2e262dc487de6a85899b3897d6638ad0fb885c2e99df93164736f6c63430008180033",
  "linkReferences": {},
  "deployedLinkReferences": {}
}