{
  "_format": "hh-sol-artifact-1",
  "contractName": "Exchange",
  "sourceName": "contracts/Exchange.sol",
  "abi": [
    {
      "inputs": [
        {
          "internalType": "address",
          "name": "_platformToken",
          "type": "address"
        },
        {
          "internalType": "uint256",
          "name": "_tokenPrice",
          "type": "uint256"
        }
      ],
      "stateMutability": "nonpayable",
      "type": "constructor"
    },
    {
      "inputs": [
        {
          "internalType": "address",
          "name": "owner",
          "type": "address"
        }
      ],
      "name": "OwnableInvalidOwner",
      "type": "error"
    },
    {
      "inputs": [
        {
          "internalType": "address",
          "name": "account",
          "type": "address"
        }
      ],
      "name": "OwnableUnauthorizedAccount",
      "type": "error"
    },
    {
      "inputs": [],
      "name": "ReentrancyGuardReentrantCall",
      "type": "error"
    },
    {
      "anonymous": false,
      "inputs": [
        {
          "indexed": true,
          "internalType": "address",
          "name": "previousOwner",
          "type": "address"
        },
        {
          "indexed": true,
          "internalType": "address",
          "name": "newOwner",
          "type": "address"
        }
      ],
      "name": "OwnershipTransferred",
      "type": "event"
    },
    {
      "inputs": [],
      "name": "buy",
      "outputs": [],
      "stateMutability": "payable",
      "type": "function"
    },
    {
      "inputs": [
        {
          "internalType": "uint256",
          "name": "listingIndex",
          "type": "uint256"
        }
      ],
      "name": "buyToken",
      "outputs": [],
      "stateMutability": "payable",
      "type": "function"
    },
    {
      "inputs": [],
      "name": "getListingsCount",
      "outputs": [
        {
          "internalType": "uint256",
          "name": "",
          "type": "uint256"
        }
      ],
      "stateMutability": "view",
      "type": "function"
    },
    {
      "inputs": [
        {
          "internalType": "contract IERC20",
          "name": "token",
          "type": "address"
        },
        {
          "internalType": "uint256",
          "name": "amount",
          "type": "uint256"
        },
        {
          "internalType": "uint256",
          "name": "price",
          "type": "uint256"
        }
      ],
      "name": "listToken",
      "outputs": [],
      "stateMutability": "nonpayable",
      "type": "function"
    },
    {
      "inputs": [
        {
          "internalType": "uint256",
          "name": "",
          "type": "uint256"
        }
      ],
      "name": "listings",
      "outputs": [
        {
          "internalType": "address",
          "name": "seller",
          "type": "address"
        },
        {
          "internalType": "contract IERC20",
          "name": "token",
          "type": "address"
        },
        {
          "internalType": "uint256",
          "name": "amount",
          "type": "uint256"
        },
        {
          "internalType": "uint256",
          "name": "price",
          "type": "uint256"
        }
      ],
      "stateMutability": "view",
      "type": "function"
    },
    {
      "inputs": [],
      "name": "owner",
      "outputs": [
        {
          "internalType": "address",
          "name": "",
          "type": "address"
        }
      ],
      "stateMutability": "view",
      "type": "function"
    },
    {
      "inputs": [],
      "name": "platformToken",
      "outputs": [
        {
          "internalType": "address",
          "name": "",
          "type": "address"
        }
      ],
      "stateMutability": "view",
      "type": "function"
    },
    {
      "inputs": [],
      "name": "renounceOwnership",
      "outputs": [],
      "stateMutability": "nonpayable",
      "type": "function"
    },
    {
      "inputs": [
        {
          "internalType": "uint256",
          "name": "_tokenPrice",
          "type": "uint256"
        }
      ],
      "name": "setTokenPrice",
      "outputs": [],
      "stateMutability": "nonpayable",
      "type": "function"
    },
    {
      "inputs": [],
      "name": "tokenPrice",
      "outputs": [
        {
          "internalType": "uint256",
          "name": "",
          "type": "uint256"
        }
      ],
      "stateMutability": "view",
      "type": "function"
    },
    {
      "inputs": [],
      "name": "totalListingsCount",
      "outputs": [
        {
          "internalType": "uint256",
          "name": "",
          "type": "uint256"
        }
      ],
      "stateMutability": "view",
      "type": "function"
    },
    {
      "inputs": [
        {
          "internalType": "address",
          "name": "newOwner",
          "type": "address"
        }
      ],
      "name": "transferOwnership",
      "outputs": [],
      "stateMutability": "nonpayable",
      "type": "function"
    },
    {
      "inputs": [],
      "name": "withdraw",
      "outputs": [],
      "stateMutability": "nonpayable",
      "type": "function"
    }
  ],
  "bytecode": "0x60806040523480156200001157600080fd5b5060405162001b5238038062001b5283398181016040528101906200003791906200027f565b33600073ffffffffffffffffffffffffffffffffffffffff168173ffffffffffffffffffffffffffffffffffffffff1603620000ad5760006040517f1e4fbdf7000000000000000000000000000000000000000000000000000000008152600401620000a49190620002d7565b60405180910390fd5b620000be816200011660201b60201c565b506001808190555081600260006101000a81548173ffffffffffffffffffffffffffffffffffffffff021916908373ffffffffffffffffffffffffffffffffffffffff160217905550806003819055505050620002f4565b60008060009054906101000a900473ffffffffffffffffffffffffffffffffffffffff169050816000806101000a81548173ffffffffffffffffffffffffffffffffffffffff021916908373ffffffffffffffffffffffffffffffffffffffff1602179055508173ffffffffffffffffffffffffffffffffffffffff168173ffffffffffffffffffffffffffffffffffffffff167f8be0079c531659141344cd1fd0a4f28419497f9722a3daafe3b4186f6b6457e060405160405180910390a35050565b600080fd5b600073ffffffffffffffffffffffffffffffffffffffff82169050919050565b60006200020c82620001df565b9050919050565b6200021e81620001ff565b81146200022a57600080fd5b50565b6000815190506200023e8162000213565b92915050565b6000819050919050565b620002598162000244565b81146200026557600080fd5b50565b60008151905062000279816200024e565b92915050565b60008060408385031215620002995762000298620001da565b5b6000620002a9858286016200022d565b9250506020620002bc8582860162000268565b9150509250929050565b620002d181620001ff565b82525050565b6000602082019050620002ee6000830184620002c6565b92915050565b61184e80620003046000396000f3fe6080604052600436106100c25760003560e01c80637ff9b5961161007f578063cbaa068f11610059578063cbaa068f146101ee578063d1b812cd14610219578063de74e57b14610244578063f2fde38b14610284576100c2565b80637ff9b5961461018e5780638da5cb5b146101b9578063a6f2ae3a146101e4576100c2565b806314671058146100c75780632d296bf1146100f25780633ccfd60b1461010e5780636a61e5fc14610125578063715018a61461014e5780637e07590d14610165575b600080fd5b3480156100d357600080fd5b506100dc6102ad565b6040516100e99190610f5e565b60405180910390f35b61010c60048036038101906101079190610faa565b6102b3565b005b34801561011a57600080fd5b50610123610727565b005b34801561013157600080fd5b5061014c60048036038101906101479190610faa565b61077f565b005b34801561015a57600080fd5b50610163610791565b005b34801561017157600080fd5b5061018c60048036038101906101879190611047565b6107a5565b005b34801561019a57600080fd5b506101a36109ad565b6040516101b09190610f5e565b60405180910390f35b3480156101c557600080fd5b506101ce6109b3565b6040516101db91906110a9565b60405180910390f35b6101ec6109dc565b005b3480156101fa57600080fd5b50610203610c6a565b6040516102109190610f5e565b60405180910390f35b34801561022557600080fd5b5061022e610c77565b60405161023b91906110a9565b60405180910390f35b34801561025057600080fd5b5061026b60048036038101906102669190610faa565b610c9d565b60405161027b9493929190611123565b60405180910390f35b34801561029057600080fd5b506102ab60048036038101906102a69190611194565b610d1d565b005b60055481565b6102bb610da3565b6000600482815481106102d1576102d06111c1565b5b906000526020600020906004020190506000600260009054906101000a900473ffffffffffffffffffffffffffffffffffffffff1673ffffffffffffffffffffffffffffffffffffffff1663313ce5676040518163ffffffff1660e01b8152600401602060405180830381865afa158015610350573d6000803e3d6000fd5b505050506040513d601f19601f820116820180604052508101906103749190611229565b600a61038091906113b8565b8260030154346103909190611432565b61039a9190611463565b905081600201548111156103e3576040517f08c379a00000000000000000000000000000000000000000000000000000000081526004016103da90611502565b60405180910390fd5b808260020160008282546103f79190611522565b925050819055508160010160009054906101000a900473ffffffffffffffffffffffffffffffffffffffff1673ffffffffffffffffffffffffffffffffffffffff1663a9059cbb33836040518363ffffffff1660e01b815260040161045d929190611556565b6020604051808303816000875af115801561047c573d6000803e3d6000fd5b505050506040513d601f19601f820116820180604052508101906104a091906115b7565b6104df576040517f08c379a00000000000000000000000000000000000000000000000000000000081526004016104d690611630565b60405180910390fd5b8160000160009054906101000a900473ffffffffffffffffffffffffffffffffffffffff1673ffffffffffffffffffffffffffffffffffffffff166108fc349081150290604051600060405180830381858888f19350505050158015610549573d6000803e3d6000fd5b50600082600201540361071a576004600160048054905061056a9190611522565b8154811061057b5761057a6111c1565b5b90600052602060002090600402016004848154811061059d5761059c6111c1565b5b90600052602060002090600402016000820160009054906101000a900473ffffffffffffffffffffffffffffffffffffffff168160000160006101000a81548173ffffffffffffffffffffffffffffffffffffffff021916908373ffffffffffffffffffffffffffffffffffffffff1602179055506001820160009054906101000a900473ffffffffffffffffffffffffffffffffffffffff168160010160006101000a81548173ffffffffffffffffffffffffffffffffffffffff021916908373ffffffffffffffffffffffffffffffffffffffff160217905550600282015481600201556003820154816003015590505060048054806106a2576106a1611650565b5b6001900381819060005260206000209060040201600080820160006101000a81549073ffffffffffffffffffffffffffffffffffffffff02191690556001820160006101000a81549073ffffffffffffffffffffffffffffffffffffffff021916905560028201600090556003820160009055505090555b5050610724610de9565b50565b61072f610df2565b6107376109b3565b73ffffffffffffffffffffffffffffffffffffffff166108fc479081150290604051600060405180830381858888f1935050505015801561077c573d6000803e3d6000fd5b50565b610787610df2565b8060038190555050565b610799610df2565b6107a36000610e79565b565b6107ad610da3565b8273ffffffffffffffffffffffffffffffffffffffff166323b872dd3330856040518463ffffffff1660e01b81526004016107ea9392919061167f565b6020604051808303816000875af1158015610809573d6000803e3d6000fd5b505050506040513d601f19601f8201168201806040525081019061082d91906115b7565b61086c576040517f08c379a000000000000000000000000000000000000000000000000000000000815260040161086390611630565b60405180910390fd5b600460405180608001604052803373ffffffffffffffffffffffffffffffffffffffff1681526020018573ffffffffffffffffffffffffffffffffffffffff16815260200184815260200183815250908060018154018082558091505060019003906000526020600020906004020160009091909190915060008201518160000160006101000a81548173ffffffffffffffffffffffffffffffffffffffff021916908373ffffffffffffffffffffffffffffffffffffffff16021790555060208201518160010160006101000a81548173ffffffffffffffffffffffffffffffffffffffff021916908373ffffffffffffffffffffffffffffffffffffffff160217905550604082015181600201556060820151816003015550506005600081548092919061099b906116b6565b91905055506109a8610de9565b505050565b60035481565b60008060009054906101000a900473ffffffffffffffffffffffffffffffffffffffff16905090565b6109e4610da3565b60003411610a27576040517f08c379a0000000000000000000000000000000000000000000000000000000008152600401610a1e9061174a565b60405180910390fd5b6000600260009054906101000a900473ffffffffffffffffffffffffffffffffffffffff1673ffffffffffffffffffffffffffffffffffffffff1663313ce5676040518163ffffffff1660e01b8152600401602060405180830381865afa158015610a96573d6000803e3d6000fd5b505050506040513d601f19601f82011682018060405250810190610aba9190611229565b600a610ac691906113b8565b60035434610ad49190611432565b610ade9190611463565b905080600260009054906101000a900473ffffffffffffffffffffffffffffffffffffffff1673ffffffffffffffffffffffffffffffffffffffff166370a08231306040518263ffffffff1660e01b8152600401610b3c91906110a9565b602060405180830381865afa158015610b59573d6000803e3d6000fd5b505050506040513d601f19601f82011682018060405250810190610b7d919061177f565b1015610bbe576040517f08c379a0000000000000000000000000000000000000000000000000000000008152600401610bb5906117f8565b60405180910390fd5b600260009054906101000a900473ffffffffffffffffffffffffffffffffffffffff1673ffffffffffffffffffffffffffffffffffffffff1663a9059cbb33836040518363ffffffff1660e01b8152600401610c1b929190611556565b6020604051808303816000875af1158015610c3a573d6000803e3d6000fd5b505050506040513d601f19601f82011682018060405250810190610c5e91906115b7565b5050610c68610de9565b565b6000600480549050905090565b600260009054906101000a900473ffffffffffffffffffffffffffffffffffffffff1681565b60048181548110610cad57600080fd5b90600052602060002090600402016000915090508060000160009054906101000a900473ffffffffffffffffffffffffffffffffffffffff16908060010160009054906101000a900473ffffffffffffffffffffffffffffffffffffffff16908060020154908060030154905084565b610d25610df2565b600073ffffffffffffffffffffffffffffffffffffffff168173ffffffffffffffffffffffffffffffffffffffff1603610d975760006040517f1e4fbdf7000000000000000000000000000000000000000000000000000000008152600401610d8e91906110a9565b60405180910390fd5b610da081610e79565b50565b600260015403610ddf576040517f3ee5aeb500000000000000000000000000000000000000000000000000000000815260040160405180910390fd5b6002600181905550565b60018081905550565b610dfa610f3d565b73ffffffffffffffffffffffffffffffffffffffff16610e186109b3565b73ffffffffffffffffffffffffffffffffffffffff1614610e7757610e3b610f3d565b6040517f118cdaa7000000000000000000000000000000000000000000000000000000008152600401610e6e91906110a9565b60405180910390fd5b565b60008060009054906101000a900473ffffffffffffffffffffffffffffffffffffffff169050816000806101000a81548173ffffffffffffffffffffffffffffffffffffffff021916908373ffffffffffffffffffffffffffffffffffffffff1602179055508173ffffffffffffffffffffffffffffffffffffffff168173ffffffffffffffffffffffffffffffffffffffff167f8be0079c531659141344cd1fd0a4f28419497f9722a3daafe3b4186f6b6457e060405160405180910390a35050565b600033905090565b6000819050919050565b610f5881610f45565b82525050565b6000602082019050610f736000830184610f4f565b92915050565b600080fd5b610f8781610f45565b8114610f9257600080fd5b50565b600081359050610fa481610f7e565b92915050565b600060208284031215610fc057610fbf610f79565b5b6000610fce84828501610f95565b91505092915050565b600073ffffffffffffffffffffffffffffffffffffffff82169050919050565b600061100282610fd7565b9050919050565b600061101482610ff7565b9050919050565b61102481611009565b811461102f57600080fd5b50565b6000813590506110418161101b565b92915050565b6000806000606084860312156110605761105f610f79565b5b600061106e86828701611032565b935050602061107f86828701610f95565b925050604061109086828701610f95565b9150509250925092565b6110a381610ff7565b82525050565b60006020820190506110be600083018461109a565b92915050565b6000819050919050565b60006110e96110e46110df84610fd7565b6110c4565b610fd7565b9050919050565b60006110fb826110ce565b9050919050565b600061110d826110f0565b9050919050565b61111d81611102565b82525050565b6000608082019050611138600083018761109a565b6111456020830186611114565b6111526040830185610f4f565b61115f6060830184610f4f565b95945050505050565b61117181610ff7565b811461117c57600080fd5b50565b60008135905061118e81611168565b92915050565b6000602082840312156111aa576111a9610f79565b5b60006111b88482850161117f565b91505092915050565b7f4e487b7100000000000000000000000000000000000000000000000000000000600052603260045260246000fd5b600060ff82169050919050565b611206816111f0565b811461121157600080fd5b50565b600081519050611223816111fd565b92915050565b60006020828403121561123f5761123e610f79565b5b600061124d84828501611214565b91505092915050565b7f4e487b7100000000000000000000000000000000000000000000000000000000600052601160045260246000fd5b60008160011c9050919050565b6000808291508390505b60018511156112dc578086048111156112b8576112b7611256565b5b60018516156112c75780820291505b80810290506112d585611285565b945061129c565b94509492505050565b6000826112f557600190506113b1565b8161130357600090506113b1565b8160018114611319576002811461132357611352565b60019150506113b1565b60ff84111561133557611334611256565b5b8360020a91508482111561134c5761134b611256565b5b506113b1565b5060208310610133831016604e8410600b84101617156113875782820a90508381111561138257611381611256565b5b6113b1565b6113948484846001611292565b925090508184048111156113ab576113aa611256565b5b81810290505b9392505050565b60006113c382610f45565b91506113ce836111f0565b92506113fb7fffffffffffffffffffffffffffffffffffffffffffffffffffffffffffffffff84846112e5565b905092915050565b7f4e487b7100000000000000000000000000000000000000000000000000000000600052601260045260246000fd5b600061143d82610f45565b915061144883610f45565b92508261145857611457611403565b5b828204905092915050565b600061146e82610f45565b915061147983610f45565b925082820261148781610f45565b9150828204841483151761149e5761149d611256565b5b5092915050565b600082825260208201905092915050565b7f4e6f7420656e6f75676820746f6b656e7320696e206c697374696e6700000000600082015250565b60006114ec601c836114a5565b91506114f7826114b6565b602082019050919050565b6000602082019050818103600083015261151b816114df565b9050919050565b600061152d82610f45565b915061153883610f45565b92508282039050818111156115505761154f611256565b5b92915050565b600060408201905061156b600083018561109a565b6115786020830184610f4f565b9392505050565b60008115159050919050565b6115948161157f565b811461159f57600080fd5b50565b6000815190506115b18161158b565b92915050565b6000602082840312156115cd576115cc610f79565b5b60006115db848285016115a2565b91505092915050565b7f5472616e73666572206661696c65640000000000000000000000000000000000600082015250565b600061161a600f836114a5565b9150611625826115e4565b602082019050919050565b600060208201905081810360008301526116498161160d565b9050919050565b7f4e487b7100000000000000000000000000000000000000000000000000000000600052603160045260246000fd5b6000606082019050611694600083018661109a565b6116a1602083018561109a565b6116ae6040830184610f4f565b949350505050565b60006116c182610f45565b91507fffffffffffffffffffffffffffffffffffffffffffffffffffffffffffffffff82036116f3576116f2611256565b5b600182019050919050565b7f4e65656420746f2073656e642045544800000000000000000000000000000000600082015250565b60006117346010836114a5565b915061173f826116fe565b602082019050919050565b6000602082019050818103600083015261176381611727565b9050919050565b60008151905061177981610f7e565b92915050565b60006020828403121561179557611794610f79565b5b60006117a38482850161176a565b91505092915050565b7f4e6f7420656e6f75676820746f6b656e7320696e20636f6e7472616374000000600082015250565b60006117e2601d836114a5565b91506117ed826117ac565b602082019050919050565b60006020820190508181036000830152611811816117d5565b905091905056fea26469706673582212201b2e8ad9571bd81a538b866b38d1366f2c3e6238343836e222e89ae2b86758b564736f6c63430008180033",
  "linkReferences": {},
  "deployedLinkReferences": {}
}